:100000000C94F5020C943C030C943C030C94A50D49
:100010000C943C030C943C030C943C030C943C0364
:100020000C943C030C943C030C94ED1E0C94BF1FE9
:100030000C94381A0C943C030C943C030C943C0331
:100040000C943C030C943C030C943C030C943C0334
:100050000C943C030C94911A0C943C030C943C03B8
:100060000C943C030C943C030C943C030C943C0314
:100070000C943C030C943C030C943C030C943C0304
:100080000C943C030C943C030C943C030C943C03F4
:100090000C943C030C943C030C943C030C943C03E4
:1000A0000C943C030C943C030C943C03E710E710C5
:1000B000191119116F126F126F126F126611FF1161
:1000C0001012101203130313151315130C13151329
:1000D000151315130313031311131513151311130C
:1000E0002C2053204B2153204B219F20C2204B21F9
:1000F0001921282129001E001F00200021002200B4
:100100002B001B0019000F0006001A0001511800F7
:100110000C00040008001200E0002F00330034003F
:1001200013001C000000E3000251E200E1004C005B
:100130002D00270026002500240023003202140091
:1001400009000A000B000E001D0007001700150033
:100150001100160038020D003700360010000500AF
:1001600000000352015128002C421F02010001002F
:1001700001003702010001000100241425022602BB
:1001800027141414010025146400640226142702A5
:100190000100320030146414230237000000010013
:1001A0000100010001002E02490001002D1435005C
:1001B000010001002D025400610060005F00550045
:1001C0001E0256005E005D005C00570036022202EF
:1001D0005B005A00590062000000010001000100AC
:1001E00001002102010001000100010001000100E5
:1001F000010042004300440045000100E1003E00D0
:100200003F0040004100010001003A003B003C007B
:100210003D0001000000010001000100010001009B
:100220005300010001000100010001000100010074
:100230004D0052004A002A0001004E004F005100BC
:1002400050004B00010001004F010100500101006E
:100250000000010001000100010001002900E2008E
:100260001F002000210022002B0014001A000800AB
:1002700015001700045104001600070009000A00C9
:10028000E0001D001B000600190005000000E3004F
:100290000551E200E1004C002D002700260025005A
:1002A000240023002F00130012000C0018001C0073
:1002B000340033000F000E000D000B003802320234
:1002C00037003600100011000000065204512800CB
:1002D0002C451F020100010001003702010001004E
:1002E00001002414250226022714141401002514E9
:1002F00064006402261427020100320030146414E2
:1003000023023700000001000100010001002E025D
:10031000490001002D143500010001002D02540098
:10032000610060005F0055001E0256005E005D0027
:100330005C005700360222025B005A00590062003E
:100340000000010001000100010021020100010084
:1003500001000100010001000100420043004400CF
:1003600045000100E1003E003F0040004100010067
:1003700001003A003B003C003D000100000001008C
:100380000100010001000100530001000100010013
:1003900001000100010001004D0052004A002A0046
:1003A00001004E004F00510050004B0001000100C1
:1003B0004F01010050010100000001000100010097
:1003C0000100010029001E001F0020002100220062
:1003D0002B0014000B00120018001B0007511D0019
:1003E0000C00080004003700E0000D003300360068
:1003F0000E002F000000E3000851E200E1004C0075
:100400002D002700260025002400230032021C00B6
:100410000900150006000A0034000500110017004D
:10042000160007003802190013000F0010001A0010
:1004300000000052075128002C481F020100010053
:1004400001003702010001000100241425022602E8
:1004500027141414010025146400640226142702D2
:100460000100320030146414230237000000010040
:100470000100010001002E02490001002D14350089
:10048000010001002D025400610060005F00550072
:100490001E0256005E005D005C005700360222021C
:1004A0005B005A00590062000000010001000100D9
:1004B0000100210201000100010001000100010012
:1004C000010042004300440045000100E1003E00FD
:1004D0003F0040004100010001003A003B003C00A9
:1004E0003D000100000001000100010001000100C9
:1004F00053000100010001000100010001000100A2
:100500004D0052004A002A0001004E004F005100E9
:1005100050004B00010001004F010100500101009B
:1005200000000100010001000100010000AE00AF69
:1005300000DA0281FFD9F1DB20A4A62EAF00A0C013
:1005400000A1C800AED580A81FD300408D142000A4
:100550000E034C0069006C00790035003800000083
:1005600010036C0069006C00690075006D00730079
:1005700000000403090409022200010100A0FA0995
:1005800004000001030101000921110100012240C2
:10059000000705810308000A12011001000000088D
:1005A000D8042DEB00010102000105010906A1019B
:1005B000050719E029E71500250195087501810255
:1005C0009501750881010507190029FF150026FF0F
:1005D000009506750881000508190129059505751E
:1005E000019102950175039101C011241FBECFEF47
:1005F000DAE0DEBFCDBF04B603FE27C0809143041E
:1006000090914404A0914504B09146048730904BEA
:10061000A740B04BD1F410924304109244041092BE
:1006200045041092460414BE84B7877F84BF0FB67A
:10063000F894A89580916000886180936000109282
:1006400060000FBEE0E0F8E3099511E0A0E0B1E042
:10065000E2E9F3E402C005900D92A633B107D9F7A1
:1006600024E0A6E3B1E001C01D92A334B207E1F794
:100670000E94381C0C94C7210C9400000C94420377
:1006800081E0089581E0089508950C9444031F9338
:10069000CF93DF9300D000D01F92CDB7DEB7498350
:1006A0005A836B8330918E0189819A81311114C0F4
:1006B000662359F0222349F00E94C117182F682F92
:1006C00089819A810E94681703C00E949417182F8D
:1006D00069817A81812F04C00E94C11769817A8162
:1006E0000F900F900F900F900F90DF91CF911F916F
:1006F0000C94F503FC01262F4081518162817381A6
:1007000084810C944703CF93DF93EC0160E00E9457
:100710007A03BE01DF91CF910C9445030E94E81843
:10072000811102C00E948F190C94D3050C94CF053F
:1007300008950E94F1120E9498032FEF84E39CE039
:10074000215080409040E1F700C000000C94F81A5E
:100750000F931F93CF93DF93EC0161E00E947A0324
:100760008C01BE010E943E03882349F1BE01C801ED
:100770000E940A0A882319F1BE01C8010E945C0A7E
:100780008823E9F0BE01C8010E94870B8823B9F0D5
:100790008A81882369F001158CE5180731F00F3D37
:1007A0001C4531F40E948F190AC00E94990307C0AA
:1007B000CE01DF91CF911F910F910C94400380E007
:1007C000DF91CF911F910F91089508950C94E50347
:1007D00081E008950C94E803CF93C82F0E94E603AC
:1007E0008C2F0E94EA03CF9108952CE3829FC001D1
:1007F0001124FC0126E0729FE00DF11D1124E60F8B
:10080000F11DEE0FFF1FEC50FF4F8591949108955D
:10081000CF93DF930E94F5030E94E604EC0181155B
:1008200023E5920798F5811542E5940708F094C0F6
:10083000C11580E2D807C0F4C11521E0D20708F045
:10084000C1C0C53AD10548F4C430D10508F0BAC0DA
:10085000C130D10509F4B6C0B3C0CE01805E9109A4
:10086000089708F4AFC0ACC0C11541E5D40708F043
:100870006EC0C11580E5D80708F04DC0C11520E451
:10088000D20708F49DC0DF70D06A9CC0811546E590
:10089000940700F5C11585E5D80708F077C0C115A4
:1008A00024E5D20708F06DC0CE018370992721E0BE
:1008B00030E002C0220F331F8A95E2F78C2F869515
:1008C000869540E2849FC0011124E901C82BD92BF1
:1008D000DA6878C081154AE5940778F4C11589E58E
:1008E000D80708F05DC0C11528E5D20708F468C034
:1008F000DC2FCC27C06FD06A65C09056811590421E
:1009000008F05EC08D2F8F710E947A05DD27D062BE
:100910008F71D82B57C0CE0174E0969587957A9544
:10092000E1F783709C2F937021E030E002C0220F2A
:10093000331F9A95E2F73C68382BCF70C695C69561
:1009400080E2C89FE0011124C22BD32B3BC0DC2FD7
:10095000CC27C16FD06A36C08370992721E030E080
:1009600002C0220F331F8A95E2F78C2F8695869559
:1009700040E2849FC0011124E901C82BD92BDC6817
:1009800021C0DC2FCC27C46FD06A1CC08C2F0E94E2
:100990007A058F71C82FD0E0DC2FCC27D06212C02F
:1009A0008C2F8F700E947A0594E0D695C7959A9502
:1009B000E1F7CF70D0E0DC2FCC27D069C82B02C084
:1009C000C0E0D0E0CE01DF91CF910895823891054B
:1009D00069F1B0F48133910509F46DC048F48932AE
:1009E000910509F463C08A32910509F469C008953C
:1009F0008533910509F455C089339105B9F00895FF
:100A0000833E910569F138F4803E9105B1F0823E54
:100A1000910509F10895863E9105A9F1873E91055A
:100A2000B9F1843E910509F064C023C020913404DB
:100A300020FD4FC021FD4DC008958091340480FDFC
:100A400044C08091350480FF44C08091340484FD0B
:100A500042C083EE4DC08091340482FF38C0F5CF90
:100A60008091340482FD33C08091350480FD31C013
:100A7000ECCF8091350481FF32C08091340484FD35
:100A80002AC087EE35C08091340483FF26C0F5CF9D
:100A90008091340483FD21C08091350481FD1FC005
:100AA000ECCF8091340485FD1CC01DC080913404BE
:100AB00085FD19C016C08091340486FD16C017C08C
:100AC0008091340486FD13C010C089E311C082EE0A
:100AD0000FC080EE0DC080E00BC086EE09C084EE32
:100AE00007C089E205C085E303C08AE201C081E353
:100AF00090E008959091340492FF0DC0282F287142
:100B0000283019F4877F846006C0282F2471243090
:100B100011F48B7F886093FF0DC0282F2871283136
:100B200019F4877E846106C0282F2471243111F4C2
:100B30008B7E88612091350420FF0DC0382F3871DD
:100B4000383019F4877F816006C0382F3171313019
:100B500011F48E7F886021FF0DC0282F2871283165
:100B600019F4877E816106C0282F2171213111F48B
:100B70008E7E886194FD877E0895E82FF0E0E65E22
:100B8000FD4F80810895089580EA8A95F1F70895D0
:100B900000C008950C94C40508950C94CC050C94E1
:100BA000CD050C94CC050C94D105F894E82FE29572
:100BB000EF70F0E031A1282F2F7081E090E001C0AC
:100BC000880F2A95EAF7982F9095932391A392A1E5
:100BD000892B82A37894089508950F931F93CF9340
:100BE000DF930E947B0780910001809100018111B9
:100BF00002C095E001C090E09093250285E0891B3A
:100C00008093240286E60E94D50587E90E94D505D7
:100C100086EC0E94D50584E30E94D50585E30E94F9
:100C2000D505CDE1D1E003E211E089910E94D5051F
:100C30000C171D07D1F7E0E1F2E0AAE1B2E0119252
:100C40001D9282E0EA31F807D1F785E00E9425077E
:100C50000E948E03DF91CF911F910F910C94850715
:100C60000F931F93CF93DF9300D000D01F92CDB787
:100C7000DEB70E945C0760912502882309F442C018
:100C80008E010F5F1F4F85E0F80111928A95E9F7F9
:100C9000862F90E0B801865E9D4F0E94C40B8111A3
:100CA00016C0809138018F5F80933801863030F113
:100CB000E0912402F0E0E65EFD4FD801CE010696F9
:100CC00011921D92A817B907D9F711E018C0109218
:100CD0003801A0912402B0E0A65EBD4FF8019E014C
:100CE0002A5F3F4F10E081919C91981711F08C93EF
:100CF00011E01196E217F307B1F701C010E00E946E
:100D000096030DC070E0665E7D4F8091240290E0F6
:100D1000865E9D4F0E94F00B0E94EC0510E0812F33
:100D20000F900F900F900F900F90DF91CF911F9128
:100D30000F9108958F929F92AF92BF92CF92DF92C0
:100D4000EF92FF920F931F93CF93DF9383E2A82E2E
:100D500081E0B82EC0E1D2E098E2E92E91E0F92ED0
:100D6000912C01E010E06501F5018081F894E82FF5
:100D7000E295EF70F0E021A18F70A80102C0440F4E
:100D8000551F8A95E2F7CA01922F982B91A392A141
:100D90008095892382A378940E94C805EDE1F1E053
:100DA00020E030E0812C4191A42FA295AF70B0E0FB
:100DB00090968C9190E04F7002C0959587954A95DA
:100DC000E2F780FD07C0802F022E01C0880F0A9431
:100DD000EAF701C080E0882A2F5F3F4F26303105B7
:100DE00011F75FEFA51AB50AF60180810E94D505BB
:100DF0000E94CA058881881619F0888281E001C0A6
:100E000080E0982A2196EA14FB0409F0ACCF6091A7
:100E1000250270E0665E7D4F292D45E080E192E07D
:100E20000E9426070E943006992011F081E090E090
:100E3000DF91CF911F910F91FF90EF90DF90CF90B6
:100E4000BF90AF909F908F9008950895FF920F9359
:100E50001F93CF93DF938C01F62ED72FC42F22231D
:100E600049F081E080933B010E946A1A90933A0115
:100E70008093390180913B018823C1F08091390131
:100E800090913A010E94821A069780F0EF2DFD2F73
:100E9000D8014C2F50E0CD01801B910B8417950792
:100EA0001CF48D918193F7CF10923B01DF91CF918C
:100EB0001F910F91FF90089580913C01811112C004
:100EC0008091D80080618093D8008AE18A95F1F7FB
:100ED00000C08091D90080FD02C082E001C081E0A5
:100EE00080933C0181E090913C01913009F080E0D9
:100EF00008950C945C070E947907809300010E947A
:100F00005C0781110C94B80B08950E945C07811155
:100F100002C00C94BE0B0895EF92FF920F931F93A3
:100F2000CF93DF93EC017B0164E670E088E70E94D9
:100F3000140C8C01EC0EFD1ECE15DF0561F017FDC3
:100F40000AC0FE01849164E670E00E946B0C8C0183
:100F50002196892B89F30E94EF0CC801DF91CF9174
:100F60001F910F91FF90EF9008950895E6E2F2E04F
:100F700080E092E0DF019C011D9221503040E1F7BA
:100F8000F0932B04E0932A048FEF9FEF909363017B
:100F90008093620108950E94B50780935E0180FDF1
:100FA00002C080E801C080E280935D010E940E0CC7
:100FB0006DE070E083E495E00E948C07892B11F0CE
:100FC00080E0089580915E0163E070E081FD03C0E0
:100FD00080E495E002C08DE395E00E948C07892BA8
:100FE00079F76DE070E080E395E00E948C07892B33
:100FF00039F70E94761ADC01CB01805A9541AF4F38
:10100000BF4F8093260490932704A0932804B093A5
:1010100029040E94B60781E08093610180936001FA
:1010200010925F01089520915D0136E0839FC00119
:101030001124629F800D911D1124811522E09207D9
:1010400014F080E090E08A5D9D4F90932B04809394
:101050002A040895809161018823F9F00E94761A8C
:10106000DC01CB01805A9541AF4FBF4F80932604DE
:1010700090932704A0932804B093290480916001E1
:1010800081110BC062E070E08EE295E00E948C0757
:10109000892B19F481E080936001809160010895AB
:1010A0006F927F928F929F92AF92BF92CF92DF9278
:1010B000EF92FF920F931F93CF93DF938091610183
:1010C000882309F4DCC0209162013091630121156D
:1010D000310509F4D4C080915F018111D0C061E075
:1010E00070E0082F10E03B01082E02C0660C771C50
:1010F0000A94E2F7A90146215721452B11F48F5F8D
:10110000F0CF90915E01980165E0220F331F6A9540
:10111000E1F790FD12C08295880F807680930301DD
:10112000220F232F221F330B319520930601815E5E
:10113000809304011092070112C045E0369527956F
:101140004A95E1F7220F220F220F209303011092FC
:101150000601295F2093040183E08093070124E6C0
:1011600030E047E050E061E071E088E70E949B0CCE
:10117000892B09F084C080915E0180FD23C0A80105
:1011800095E0440F551F9A95E1F74A5D5D4F04E6DF
:1011900010E020E230E060E488E70E94C20C892B76
:1011A00009F06DC00E942A08E301C095D095809196
:1011B000620190916301C823D923D0936301C09346
:1011C00062015DC080E2EDE3F1E0DF011D928A95EE
:1011D000E9F785E0000F111F8A95E1F7A1E3B1E07F
:1011E0004DE251E0992493942D91EA018991AE0149
:1011F000B801680F711D6A5D7D4F30E0235C3E4F82
:10120000F90197E07F01E21AF30AA92C01C0AA0CA8
:10121000EA94EAF77B01B12CE70189917E018A21EA
:10122000892E8B18D82DD770CD2E0D2E000CDD08F1
:10123000C82F01C0CC0FDA95EAF7D194C194D10838
:10124000D7E0CD22DD2401C08695CA94EAF78C2B25
:10125000D0808D298083B39488E0B812DDCF91507F
:1012600031969F3F79F6C1E0A533BC0709F0BCCFAA
:1012700004E610E020E230E04DE351E08CCFDF9156
:10128000CF911F910F91FF90EF90DF90CF90BF9083
:10129000AF909F908F907F906F90089580916101A3
:1012A00090916001882389F0992369F062E070E0F1
:1012B0008CE295E00E948C07892B19F080916001E7
:1012C0000895109260019091600181E0892708954E
:1012D00008950F931F9380916101882329F160E0A5
:1012E00080E00E9413080E9468090E9450088091C3
:1012F00060018823C9F00E94761A0091260410919B
:1013000027042091280430912904DC01CB01801BA3
:10131000910BA20BB30B8F3F9F4FAF4FBF4720F4F2
:101320001F910F910C944E091F910F9108950F93E7
:101330001F93CF93DF93C42FD22FFC018281882388
:10134000C9F0409366010E946A1A909365018093E8
:10135000640180E28C0F883008F057C0C77081E0CC
:1013600001C0880FCA95EAF7DF91CF911F910F91C5
:101370000C94A21080916601481330C080916401E2
:10138000909165010E94821A883C910538F510E21F
:101390001D0FCD17B9F080E28C0F883040F4C77074
:1013A00081E001C0880FCA95EAF70E94A9101830A1
:1013B00028F581E09D2F977001C0880F9A95EAF774
:1013C0000E94A210802F0E9499101830F0F4D7705C
:1013D00081E001C0880FDA95EAF70AC080E28C0F3D
:1013E000883098F4C77081E001C0880FCA95EAF789
:1013F000DF91CF911F910F910C94A910802FDF9155
:10140000CF911F910F910C949910DF91CF911F9163
:101410000F9108950F939C01CB01243F4CE53407B5
:1014200031F188F4293DFCE53F07D9F02A3D4CE530
:10143000340779F1283D3C45A9F506E221EE41EE5D
:1014400068ED7CE52BC0263FFCE53F07E1F0A8F006
:10145000273F3C4539F507E225EE46EE67EF7CE590
:101460001DC007E225EE45EE69ED7CE517C006E2FA
:1014700021EE40EE64EF7CE511C007E225EE44EE7C
:1014800065EF7CE50BC006E221EE42EE66EF7CE5FF
:1014900005C008E221E045EE6AED7CE50E9497096F
:1014A00080E008C0FC018281882319F01092660157
:1014B00001C081E00F910895CF93DF93EC01FB0110
:1014C0008281882309F41FC1C230FCE5DF0708F4DC
:1014D0001BC1C6319CE5D90738F09E012B5F3C4506
:1014E0002930310508F010C10E94FB189093350493
:1014F00080933404C031ECE5DE0709F4C3C008F082
:1015000041C0C8308CE5D80709F49AC0F0F4C43063
:10151000ECE5DE0709F487C068F4C2308CE5D80733
:1015200009F477C0C330DC4509F0E3C0809134048E
:10153000826076C0C630ECE5DE0709F46EC008F0C4
:101540007BC08091340488606BC0CC308CE5D807B8
:1015500009F485C068F4CA30ECE5DE0709F474C00C
:1015600008F079C00E94F11280913404806858C05C
:10157000CE308CE5D80709F476C008F07FC08091A2
:1015800034048BC0CC3FECE5DE0709F44FC018F5FE
:10159000C3318CE5D80709F47DC078F4C131ECE59E
:1015A000DE0709F473C0C231DC4509F0A2C00E9415
:1015B000F112809134048F7733C0C5318CE5D807A0
:1015C00009F472C008F486C0CB3FDC4509F091C035
:1015D000809135043EC0C115FDE5DF0709F45FC009
:1015E00058F4CE3F9CE5D90709F444C008F43FC045
:1015F0008091350482602DC0C230FDE5DF0709F41B
:1016000075C008F45DC0C330DD4509F072C080E0EC
:101610006EC080913404816003C080913404806185
:101620008093340466C08091340411C080913504E5
:101630008260809335045DC0809134048062F0CF75
:10164000809134048064ECCF80913404886084609D
:10165000E7CF8160EECF809134048E7FE1CF80911F
:1016600034048D7FDDCF80913404877FD9CF809182
:10167000350418C0809135048D7FDBCF8091340410
:101680008F7ECECF809134048F7DCACF8091340479
:101690008F7BC6CF80913404877F8B7FC1CF8091B1
:1016A00035048D7F8E7FC5CF8091340482FB222745
:1016B00020F991E0922790FB82F990FB83F9B0CF5B
:1016C00080913504982F909591708E7F892B90FB97
:1016D00081F9AFCF0E94F1128091340487FB222759
:1016E00020F991E0922790FB87F99ACF81E00E9440
:1016F000911980913404909135040E940C190E9434
:10170000F11280E001C081E0DF91CF910895CF9385
:10171000DF9386319C4541F5EB010E944218982FDA
:101720008A812091100130911101882379F09A7AF1
:1017300081E009F480E080936701911102C069E2C1
:1017400001C065E3C9010E94D8190AC080916701F0
:10175000811102C069E201C065E3C9010E94DA1982
:101760000E94831880E001C081E0DF91CF9108954D
:1017700061E070E088E091E00C94530D61E070E06E
:1017800088E091E00C945C0DCF93DF93D62FC72FA8
:1017900080E090E00E94350E892BF1F4ED2FFC2FB4
:1017A00080E090E0DC01A359BE4F2C91219301967B
:1017B00085309105B9F70E94DD1ADC01CB01029654
:1017C000A11DB11D8093690190936A01A0936B01E3
:1017D000B0936C0181E001C080E0DF91CF9108956A
:1017E000CF93DF93D62FC72F6091690170916A0163
:1017F00080916B0190916C010E94C01AED2FFC2F1B
:1018000080E090E02191DC01A359BE4F2C9301961A
:1018100085309105B9F7DF91CF9108951092B90005
:101820008CE08093B8000895EF92FF920F931F937E
:10183000CF93DF93182FEB011092BC0084EA8093C2
:10184000BC000E946A1A7C018091BC0087FD0EC01A
:10185000CF3F8FEFD807C1F30E946A1A8E199F09F4
:101860008C179D0788F38EEF9FEF2EC08091B900F3
:10187000887F883041F08091B900887F803119F0ED
:101880008FEF9FEF21C01093BB0084E88093BC00D2
:101890000E946A1A8C018091BC0087FD0CC0CF3F6A
:1018A0008FEFD807C1F30E946A1A801B910B8C1727
:1018B0009D0788F3D8CF8091B900887F883111F0D7
:1018C0008034F1F680E090E0DF91CF911F910F918D
:1018D000FF90EF9008950F931F93CF93DF93EB0149
:1018E0008093BB0084E88093BC000E946A1A8C013C
:1018F0008091BC0087FD0EC0CF3F8FEFD807C1F3AA
:101900000E946A1A801B910B8C179D0788F38EEF3B
:101910009FEF0CC02091B900287F81E090E0283231
:1019200011F480E090E0919581959109DF91CF913C
:101930001F910F910895CF92DF92EF92FF920F9334
:101940001F93CF93DF936B018A017901B9010E9444
:10195000140CE6010C0D1D1DC017D10761F424E91C
:101960002093BC00DF91CF911F910F91FF90EF90DA
:10197000DF90CF90089597FDF2CFB70189910E9433
:101980006B0CEACFCF92DF92EF92FF920F931F93EF
:10199000CF93DF93C62F6A017901B8010E94140C1E
:1019A00097FD11C0B8018C2F0E946B0CE601EC0C66
:1019B000FD1CCE15DF0539F097FD05C0B8018991F2
:1019C0000E946B0CF6CF24E92093BC00DF91CF91ED
:1019D0001F910F91FF90EF90DF90CF90089584E9D1
:1019E0008093BC0008958EE14A9B02C08150E1F7CC
:1019F0004A9BFECF08955A9880E28A95F1F75A9A49
:101A00000895FC012AE02A95F1F790E020E080E0BB
:101A100031E0261779F040E14A95F1F7880F4A9BAB
:101A200002C08160932700C0000040E14A95F1F7B1
:101A30002F5FEFCF20E12A95F1F729B100C0000018
:101A400030E13A95F1F722FB222720F992272081F5
:101A5000920F90830895EF92FF920F931F93CF936D
:101A6000DF931F92CDB7DEB719828C017C01E60EA1
:101A7000F11C0E151F0559F00E94F30C68E0CE0111
:101A800001960E94010DF80181938F01F2CF81E050
:101A90009981911180E00F90DF91CF911F910F916B
:101AA000FF90EF9008959093740180937301609379
:101AB0007201529A5A9A0895909374018093730117
:101AC0006093720152985A9AEA9AE9E6F0E08081AE
:101AD0008F7C80830895615091E001C0990F6A95D1
:101AE000EAF720E031E0992361F0492F482319F00B
:101AF0005A9A232701C05A9840E24A95F1F79695E1
:101B0000F2CF222311F05A9A01C05A9880E28A95A6
:101B1000F1F75A980895FF920F931F93CF93DF9395
:101B2000EC018C01060F111DC017D10741F0F9908F
:101B30000E94FB0C68E08F2D0E946B0DF5CFDF91AA
:101B4000CF911F910F91FF9008951F920F920FB6A2
:101B50000F9211240F931F932F933F934F935F93F3
:101B60006F937F938F939F93AF93BF93EF93FF9365
:101B7000CF93DF931F92CDB7DEB719820E94F30C8B
:101B800067E0CE0101960E94010D382F36953695FB
:101B90003695932F96959570232F2570920F292FA8
:101BA0002370969596958770920F891348C0898106
:101BB000811145C080917201831708F440C080E113
:101BC0008A95F1F75A9A529AA2E0AA95F1F700C0C5
:101BD0000091730110917401B8E03B9F000D111D3D
:101BE00011245A98F8016581662321F08681978136
:101BF0000E948B0D0E94FB0CF0E1FA95F1F75A98C8
:101C000052985A9A80E18A95F1F7D80112966C9110
:101C10001297662369F013968D919C9114970E94F8
:101C20002B0DD801ED91FC91811105C082E004C01B
:101C3000D801ED91FC9188E080830E94F30C0F9015
:101C4000DF91CF91FF91EF91BF91AF919F918F91D4
:101C50007F916F915F914F913F912F911F910F91C4
:101C60000F900FBE0F901F9018950F931F93CF9357
:101C7000DF932091720130E0281739070CF471C00E
:101C80009C0193E0220F331F9A95E1F7C0917301F5
:101C9000D0917401C20FD31FF894529A5A9845E01C
:101CA0004A95F1F70000982F969595708570890FE9
:101CB000982F937086958695890F8901082B0E942D
:101CC000FB0C84E08A95F1F700C067E0802F0E944A
:101CD0006B0D40E14A95F1F752985A9A4A9902C021
:101CE00000C0FCCF87E090E04A9B0EC0019751F402
:101CF000529A5A9AE881F98181E08083789481E050
:101D000090E031C000C0F0CF6D81662381F08E81FC
:101D10009F810E942B0D81110AC0529A5A9AE88124
:101D2000F98182E08083789482E090E01CC00E9478
:101D3000F30C80E28A95F1F75A98529A40E14A955D
:101D4000F1F76A81662321F08B819C810E948B0DC3
:101D50000E94FB0CE881F9811082789480E090E089
:101D600002C084E090E0DF91CF911F910F91089520
:101D700090937A01809379010895E0917901F0912F
:101D80007A01309721F00190F081E02D099480E0F4
:101D90000895E0917901F0917A01309721F0028065
:101DA000F381E02D09940895209177013091780115
:101DB0002817390771F09093780180937701E091AB
:101DC0007901F0917A01309721F00680F781E02DBA
:101DD00009940895209175013091760128173907EB
:101DE00071F09093760180937501E0917901F09103
:101DF0007A01309721F00084F185E02D099408954F
:101E00000E94761A60938A0170938B0180938C01F3
:101E100090938D0160938601709387018093880170
:101E200090938901089585B7806885BF85B78068DC
:101E300085BF08950C945C0708950C941C0F0C94B6
:101E40001C0F0C941F0F0C941C0F0C94230F0C945C
:101E50001C0F0E94130F86EE98E10E94091B0E943E
:101E6000270F0C94250F0E94611A0E94B71A0E9436
:101E7000ED0580E00E94CB070E940E1B0C94210F01
:101E80008F929F92AF92BF92CF92DF92EF92FF928A
:101E90000F931F93CF93DF93CDB7DEB72A970FB67B
:101EA000F894DEBF0FBECDBF0E941D0F0E941C0F15
:101EB0000E949A06982E81110E94000F8CE7A82E8E
:101EC00081E0B82E00E010E0802E802F0E94BD053A
:101ED000D82EF501C1905F01C826B1F40F5F1F4FE6
:101EE0000A30110589F78FEF89838A831B820E944C
:101EF0006A1A8160782F9D838C8349815A816B8116
:101F00008D810E94E90F2FC08091040281FD0E9403
:101F1000C305E12CFF24F3948C2D8F21F1F00E9456
:101F20001A0F882399F0EE828F82DF2081E009F476
:101F300080E088870E946A1A8160782F9A87898753
:101F40004E815F8168858A850E94E90FF801E45817
:101F5000FE4F8081F826F08206C0E394FF0CF6E085
:101F6000EF12DACFBBCF0E94690991100E942A08B4
:101F70000E94BD0E90917B018917C1F00E94BD0E99
:101F800080937B012A960FB6F894DEBF0FBECDBFBB
:101F9000DF91CF911F910F91FF90EF90DF90CF9045
:101FA000BF90AF909F908F900C94EC032A960FB641
:101FB000F894DEBF0FBECDBFDF91CF911F910F917F
:101FC000FF90EF90DF90CF90BF90AF909F908F9059
:101FD0000895DF92EF92FF920F931F93CF93DF93B9
:101FE000CDB7DEB72B970FB6F894DEBF0FBECDBFCF
:101FF000F42E052F162FE72ED82E61110E9462189D
:10200000FE01319686E0DF011D928A95E9F77E2D6B
:102010004F2D502F612F8D2D9E810E94AA152B963A
:102020000FB6F894DEBF0FBECDBFDF91CF911F91E9
:102030000F91FF90EF90DF900895FC0180819181D6
:102040000E9403180895CF93882371F1C82F8CEF55
:102050008C0F813AD0F46C2F809110019091110176
:102060000E94A219882349F06C2F80911001909151
:1020700011010E94DA190E9483186C2F80911001BF
:10208000909111010E94D8190CC080E28C0F883009
:1020900058F4C77081E001C0880FCA95EAF70E9422
:1020A0004518CF910C948318CF910895882349F156
:1020B000682F8CEF860F813A38F48091100190914F
:1020C00011010E94DA190CC080E2860F883050F4AA
:1020D000677081E001C0880F6A95EAF70E944B188B
:1020E0000C9483188BE5860F833020F480E090E019
:1020F0000C94D40E685A673120F480E090E00C9480
:10210000EA0E08951F93CF93DF93182FEB010E94DF
:102110002310209741F08FE99FE00197F1F700C06D
:1021200000002197F6CF812FDF91CF911F910C9462
:102130005610893319F060E070E002C060E570E08D
:102140000C948210882321F00E9445180C94831867
:102150000895882321F00E944B180C948318089549
:10216000CF92DF92EF92FF920F931F93CF93DF9363
:102170007C01D62FC72FFC010281158112951F709B
:102180000E943B18882399F0002389F08C2F807FD0
:10219000803421F080E28D0F883048F082E00E9488
:1021A000CD180E943B1891E0D82ED92601C0D12C21
:1021B000CC2EC2948FE0C8228C2D90E08C309105FB
:1021C00008F08DC1FC01EA5AFF4F0C947F218C2F3F
:1021D000807FCF70882311F0C295C07F002399F0D3
:1021E000CC2309F468C180E28D0F883010F0D11142
:1021F00004C08C2F0E94451803C08C2F0E945518D4
:102200000E94831858C18D2F0E945610CC2309F4C8
:1022100066C180E28D0F883010F0D11104C08C2F80
:102220000E944B1803C08C2F0E945B180E948318D9
:1022300056C18C2F807FCF70803211F0C295C07F45
:10224000DD2319F0D130C9F022C0002371F0112331
:1022500041F0113031F40E9468188C2B0E947018E4
:102260003EC10E9468188C2B1DC0112319F011303B
:1022700009F435C10E94791825C0002321F01630D9
:1022800008F02DC10EC0153008F029C11BC0002375
:1022900061F0112331F0F701858180FF0CC18F704F
:1022A00085838C2F0E94A2101AC1112359F0D933B3
:1022B00009F012C1FFEF07EE13E0F15000401040AB
:1022C000E1F708C18C2F0E94A91009C18C2F8370DF
:1022D00009F047C0011107C12D2F229526952770BF
:1022E000220F220F6D2F6F70862F90E0A0E0B0E0DC
:1022F000022E04C0880F991FAA1FBB1F0A94D2F791
:10230000D4FF10C04FE050E060E070E004C0440F24
:10231000551F661F771F2A95D2F7409550956095F7
:10232000709503C040E050E0BA01C695C695C370F1
:102330008A019B01082B192B2A2B3B2BC901B801C1
:10234000C23049F058F4C13019F00E947E16CBC05B
:102350000E946C16C8C00E949016C5C00E946A16E2
:10236000C2C0002319F08C2F817001C0869588238C
:1023700009F4B9C02D2F229526952770220F220F20
:102380006D2F6F70862F90E0A0E0B0E0022E04C0A9
:10239000880F991FAA1FBB1F0A94D2F7D4FF10C041
:1023A0004FE050E060E070E004C0440F551F661F2E
:1023B000771F2A95D2F7409550956095709503C088
:1023C00040E050E0BA01C695C695C3708A019B01F2
:1023D000082B192B2A2B3B2BC901B801C23049F01D
:1023E00058F4C13019F00E9443177DC00E94311784
:1023F0007AC00E94551777C00E94A41674C0CF708F
:10240000002339F08C2F0E94CA168D2F0E94A21033
:102410006AC08D2F0E94A9108C2F0E94EB1663C0FA
:10242000D23F01F128F4D03F41F0D13FA1F03FC0AD
:10243000D33FF9F0D43F39F13AC0002341F01530D1
:1024400008F04DC08C2F8F710E94101748C01630B5
:1024500008F045C0F7CF002339F08C2F8F710E9410
:10246000CA163DC00023C9F38C2F8F710E94EB1652
:1024700036C0002329F08C2F8F710E94B5162FC013
:102480000E94B0162CC0002349F0CF718C2F0E94FF
:10249000CA1663E08C2F0E94B81821C081E00E9408
:1024A000CD181230E0F082E00E94CD1818C0002351
:1024B00031F0112391F28D2F0E94231010C01123AF
:1024C00099F2D93349F41FEF27EE33E01150204041
:1024D0003040E1F700C000008D2F0E94561088EFB9
:1024E0008C0D843020F40E94BD0E0E94EC03DD2090
:1024F000C9F00E94371880FD15C0F70112820E94B2
:1025000031180E94CA16C7010E94B3120E943118E6
:10251000DF91CF911F910F91FF90EF90DF90CF90BF
:102520000C94EB16DF91CF911F910F91FF90EF90DC
:10253000DF90CF9008950F931F93CF93DF93EC011B
:10254000688179818A810E940E188C010E94671728
:102550000E945816B801CE010E94B010DF91CF91B1
:102560001F910F910895CF93DF93EC01988189819A
:102570002B813C81232B31F08F3F31F481E09F3F51
:1025800019F403C081E001C080E080FD19C0CE01D4
:102590000E94A80381110CC00E943B18882381F07F
:1025A0008A81882369F082E0DF91CF910C94CD1865
:1025B000CE010E949B12CE01DF91CF910C94830338
:1025C000DF91CF9108950E9462180E9465180C94C3
:1025D000831880911001909111010E94DC190C94D4
:1025E000E3120E9452180C94E912E92FE295EF7061
:1025F0004E2F50E0FA013297EE30F105B0F4EE596B
:10260000FF4F0C947F21803F91F018F4883E68F4CE
:102610000EC0843F51F40BC0883E48F0813F29F43E
:1026200006C093FB882780F9089580E0089581E033
:1026300008950E9403180E94F5120895CF93DF9326
:1026400000D000D01F92CDB7DEB70F900F900F9043
:102650000F900F90DF91CF910895CF93DF9300D02B
:1026600000D000D0CDB7DEB726960FB6F894DEBF07
:102670000FBECDBFDF91CF9108951F93CF93DF930E
:10268000C0918F0116E080919001C81799F0D0E0B9
:102690001C9FF0011D9FF00D1124EF56FE4F40814D
:1026A000518162817381848195810E942D132196CD
:1026B000C770E9CFDF91CF911F9108954091C1017B
:1026C0005091C2016091C3017091C4018091C50114
:1026D0009091C6010C942D130F931F93CF93DF930A
:1026E0008091C60182958F7009F05DC08091C30111
:1026F000882309F458C080918F0110919001609156
:10270000C1017091C201C091C401D091C50191E095
:102710006F3F09F090E0292F06E0811709F443C0CC
:10272000209721F07F3F21F030E003C031E001C06D
:10273000322F90E030FD34C0089FF001099FF00D6A
:102740001124DF01AF56BE4F11963C9111973713FC
:1027500027C03C91361324C012963C911297311138
:102760001FC013964D915C9114974C1B5D0B483C18
:102770005105B0F48091C6018F7080618093C601CD
:10278000EA56FE4F80818F708061808381EC91E0FA
:102790000E94B312DF91CF911F910F910C943D13C2
:1027A00001968770BACFDF91CF911F910F91089555
:1027B0009F92AF92BF92CF92DF92EF92FF920F93D0
:1027C0001F93CF93DF93CDB7DEB761970FB6F89421
:1027D000DEBF0FBECDBF8C0185E0F801DE011D9686
:1027E00001900D928A95E1F7F80140815181E280D4
:1027F0009091C1016091C2012091C4013091C50145
:102800002115310531F06F3F31F481E09F3F19F41C
:1028100003C081E001C080E0F82FF1709F2E80FDA1
:1028200046C1F801A380B48081ECC82E81E0D82E87
:10283000F090C301F501E21BF30BFF2009F4DFC0A8
:102840008091C601E83CF10508F09BC0282F207F4D
:1028500009F052C0561313C0491311C0FE2CE110E9
:102860000EC08F7080618093C6010E945E13C60106
:102870000E94B3128091C601F801858358C1AB282C
:1028800031F05F3F31F481E04F3F19F403C081E044
:1028900001C080E080FD03C081E08E2502C080E0A1
:1028A00090E0F82FF170FF2E80FF1CC080918F0107
:1028B0002091900136E0821709F417C190E0389F0B
:1028C000F001399FF00D1124EF56FE4F6181561330
:1028D00006C06081461303C06281E61203C0019600
:1028E0008770E9CFFE2CEE2009F421C18091C6014A
:1028F00081608093C6015AC0561306C0491304C0B4
:10290000E11002C0F8019FC04D875E878D859E85CE
:102910000E941913882379F1EE2069F12091C601F4
:10292000822F82958F7090E0029774F08091C101A0
:102930009091C20198878F831986BB86AA862C87BF
:10294000CE0107960E94B31286E0F801A1ECB1E037
:1029500001900D928A95E1F70E946C130E945E131C
:102960000DC0561729F14D875E878D859E850E9483
:10297000191381112CC0C8010E94B312FF24F394D3
:10298000D6C0282F207F69F77A2DB98AA88A6E2DA4
:1029900089890E941E1381EC91E00E94B31286E0A7
:1029A000F60111928A95E9F70E945E13F12CBFC0DF
:1029B0004913D9CFE110D7CFF8018583C8010E9410
:1029C000B31286E0F60111928A95E9F7B0C0EE20C5
:1029D00091F22091C601822F82958F7090E002972C
:1029E0000CF4B2CF8091C1019091C2019A83898386
:1029F0001B82BD82AC822E83CE010196A3CFE83C20
:102A0000F10508F047C0FE2CEE2009F4B4CF5613B0
:102A100030C049132EC02091C60120FD21C0822F55
:102A200082958F70482F50E041155105C9F0F8018B
:102A300025834F30510541F08F5F982F9295907FFD
:102A4000822F8F70892B8583C8010E94B31286E084
:102A5000F801A1ECB1E001900D928A95E1F742C036
:102A600086E0F801A1ECB1E001900D928A95E1F7C2
:102A70005EC04D875E878D859E850E9419138111EA
:102A800063CF8091C60181608093C601C8010E9416
:102A9000B3124DC07A2DB98AA88A6E2D89890E94F9
:102AA0001E1386E0F60111928A95E9F71BC0EE200D
:102AB00009F461CF4D875E878D859E850E9419132D
:102AC000F82E882309F457CF86E0F801A1ECB1E095
:102AD00001900D928A95E1F781EC91E00E941D1022
:102AE0000E946C130E945E1322C04D875E878D8505
:102AF0009E850E940318292F22952F70223028F4DA
:102B00009F7039F0811105C00BC0243028F49F70EC
:102B100049F4805E883020F0C8010E94B3129F2CD7
:102B2000F92C05C0F8019581907F99F7F9CF8F2D89
:102B300061960FB6F894DEBF0FBECDBFDF91CF9187
:102B40001F910F91FF90EF90DF90CF90BF90AF90CB
:102B50009F9008951F93CF93DF93CDB7DEB72C9747
:102B60000FB6F894DEBF0FBECDBF4F83588769877D
:102B70007A878B879C87CE0107960E94D81388237B
:102B8000D1F09F8188852A853B85232B31F08F3FAB
:102B900031F481E09F3F19F403C081E001C080E07F
:102BA00080FD47C04F81588569857A858B859C85D6
:102BB0000E942D133EC086E0FE013796DE0111967D
:102BC00001900D928A95E1F7FF81E8856A857B8502
:102BD0006115710531F0EF3F31F481E0FF3F19F4E9
:102BE00003C081E001C080E080FD23C020919001FE
:102BF00030E0C90101968770992740918F0150E01C
:102C000084179507F1F1F983EA837D836C8396E05D
:102C1000929FD001939FB00D1124AF56BE4FFE017D
:102C2000319601900D929A95E1F7809390010E9460
:102C30003D1316E080918F0190919001891771F1F9
:102C4000189FC00111248F569E4F0E94D8138823CD
:102C500029F1E0918F011E9FF0011124EF56FE4FE4
:102C60004081518162817381848195810E942D13FD
:102C700080918F0190E001968770992780938F0152
:102C8000D9CF0E94F1121092900110928F01E1ECC5
:102C9000F1E086E0DF011D928A95E9F72C960FB6E8
:102CA000F894DEBF0FBECDBFDF91CF911F91089585
:102CB000089508950C9459160C945A160E945C16A7
:102CC0006093F3017093F4018093F5019093F60102
:102CD0000C94E3120C945E160F931F930091F30172
:102CE0001091F4012091F5013091F601602B712BC8
:102CF000822B932B1F910F910C945E160F931F93B1
:102D00000091F3011091F4012091F5013091F60149
:102D100060237123822393231F910F910C945E16DD
:102D20000F931F930091F3011091F4012091F5018D
:102D30003091F60160277127822793271F910F9109
:102D40000C945E160C9459160E94A2166093EF0123
:102D50007093F0018093F1019093F2010C94E312CF
:102D600060E070E0CB010C94A4160F931F9341E038
:102D700050E060E070E08A019B0104C0000F111F69
:102D8000221F331F8A95D2F7C901B8011F910F91F5
:102D90000C94A4160F931F9341E050E060E070E0A4
:102DA00004C0440F551F661F771F8A95D2F7809184
:102DB000EF019091F001A091F101B091F2018A012F
:102DC0009B01082B192B2A2B3B2BC901B8011F9102
:102DD0000F910C94A4160F931F9341E050E060E014
:102DE00070E004C0440F551F661F771F8A95D2F705
:102DF00040955095609570958091EF019091F0010C
:102E0000A091F101B091F2018A019B0108231923DD
:102E10002A233B23C901B8011F910F910C94A416DA
:102E20000F931F9341E050E060E070E004C0440F56
:102E3000551F661F771F8A95D2F78091EF019091F9
:102E4000F001A091F101B091F2018A019B010827E4
:102E500019272A273B27C901B8011F910F910C940C
:102E6000A4160F931F930091EF011091F001209190
:102E7000F1013091F201602B712B822B932B1F916A
:102E80000F910C94A4160F931F930091EF011091D2
:102E9000F0012091F1013091F2016023712382232E
:102EA00093231F910F910C94A4160F931F930091DD
:102EB000EF011091F0012091F1013091F2016027B2
:102EC0007127822793271F910F910C94A4160895C0
:102ED000292F220F920F990F890FE82FE695E6957B
:102EE000E695877051E001C0550F8A95EAF785E0B5
:102EF000E89FF0011124E953FE4F20E030E070E03C
:102F00004081CB01022E02C0969587950A94E2F784
:102F10008170819584278523842781932F5F3F4F7C
:102F20002530310569F70895292F220F920F990F47
:102F3000890F682F669566956695982F977085E03E
:102F4000689FB001112440E050E080E0FB01E40FF5
:102F5000F51FE953FE4F208130E0092E02C036955F
:102F600027950A94E2F721703327042E01C0220F1F
:102F70000A94EAF7822B4F5F5F4F4530510531F7D6
:102F80000895BF92CF92DF92EF92FF920F931F931B
:102F9000CF93DF938C01C090EF01D090F001E090CF
:102FA000F101F090F2018091F3019091F401A09170
:102FB000F501B091F601C82AD92AEA2AFB2ACFE105
:102FC000D0E0D701C6010C2E04C0B695A795979501
:102FD00087950A94D2F780FD04C0219790F7B12C11
:102FE00007C0BC2EB8018C2F0E9408040197A9F3DA
:102FF0008B2DDF91CF911F910F91FF90EF90DF907C
:10300000CF90BF900895CF93DF93EC010E94C1173A
:10301000BE010E940804DF91CF9108951F93CF93C2
:10302000DF93EB0190918E01992321F0CB010E9457
:10303000031813C0882349F0CB010E94C117182F31
:10304000682FCE010E94681704C0CB010E9494171C
:10305000182FBE01812F0E940804DF91CF911F918C
:1030600008958091F70185958595859508958091BE
:10307000F701877008959091F701977081E009F446
:1030800080E0089580910302089590910302892BB6
:103090008093030208958095909103028923809381
:1030A0000302089510920302089590910202892B61
:1030B0008093020208958095909102028923809363
:1030C00002020895109202020895109201020895DA
:1030D0008091F801089508950C946B180C946C1865
:1030E0009091F801981721F08093F8010C946E18D4
:1030F00008958091F801882329F01092F80180E06A
:103100000C946E180895E0911001F09111018091D6
:1031100003028083E0911001F09111019081809170
:103120000202892B8083E0911001F09111019081BE
:1031300080910102892B80838091F801882381F09E
:10314000E0911001F09111019081892B8083809191
:103150001001909111010E94961981110E94791815
:1031600080911001909111010C94C90E0C946B1870
:1031700098E0899F90011124262B2093F7010E944B
:10318000CA168091F7018595859585950C94B6189A
:103190001092F70180E00C94B6182091F701809509
:1031A00082238093F701982F977079F430E0482FAD
:1031B000082E000C550B2417350739F08595859599
:1031C00085950E94EB160C94C818089580E0089528
:1031D00080E090E00E948D2121E08B3E9E4F09F01F
:1031E00020E0822F089582E090E00C94852183E016
:1031F00090E00C948521CF9384E090E00E9485219B
:10320000C82F81E290E00E9485212C2F30E0A90197
:10321000582BCA01CF910895CF93C92F682F84E00E
:1032200090E00E9493216C2F81E290E0CF910C946A
:103230009321AB01BC018FE090E00C94A521AB0180
:10324000BC0183E190E00C94A52160E070E0CB012B
:103250000C941F1960E070E0CB010E9419190C94C6
:1032600025196BEE7EEF80E090E00E94B12160E0D6
:1032700082E090E00E94932160E083E090E00E9471
:1032800093211092F3011092F4011092F501109223
:10329000F60160E084E090E00E94932160E081E22A
:1032A00090E00E94932160E085E090E00E949321ED
:1032B00060E086E090E00E9493216FEF87E090E06D
:1032C0000E94932140E050E0BA0188E090E00E9423
:1032D000A52160E08DE090E00E94932140E050E065
:1032E000BA0188E190E00E94A52160E087E190E0CA
:1032F0000E94932140E050E0BA018CE190E00E94EE
:10330000A52160E080E290E00E94932140E050E03F
:10331000BA0188E190E00E94A5210C942A190C942E
:103320003119682F8EE090E00C949321FC013296C5
:1033300097E080E0915029F021912223D9F38F5F0B
:10334000F9CF0895662349F0FC0132960896219141
:10335000621729F0E817F907D1F780E0089581E0B6
:1033600008959C01FC0132969FEF80E04191461741
:1033700089F09F3F19F4411101C0982F8F5F86306B
:10338000A9F79F3F39F0F901E90FF11D97FDFA9573
:103390006283089508959C012A5F3F4FFC0142819A
:1033A000461301C01282019682179307B9F7089558
:1033B0000C94B1190C94CB19029626E0FC011192E1
:1033C0002A95E9F7089508950C94E3190C94E319EC
:1033D000CF930E94E6190E949A060E94E419C0E069
:1033E0008C2F0E94BD05811104C0CF5FCA30C1F788
:1033F00001C081E0CF9108950C94E3190C94FC195D
:1034000080913A04843049F10E94FE1980E00E94C4
:10341000EC031092050220E488E190E00FB6F894E6
:10342000A895809360000FBE2093600083B7817FD2
:10343000846083BF83B7816083BF7894889583B7A6
:103440008E7F83BF0FB6F894A89580916000886145
:1034500080936000109260000FBE08950C94E319F1
:103460000E94F1120E94BD0E0E94EC030C942E1AD1
:103470001F920F920FB60F9211248F939F93AF93C9
:10348000BF9380910502811113C080912C0490910B
:103490002D04A0912E04B0912F044196A11DB11DC1
:1034A00080932C0490932D04A0932E04B0932F04AA
:1034B000BF91AF919F918F910F900FBE0F901F9072
:1034C000189582E084BD93E095BD9AEF97BD8093F7
:1034D0006E0008952FB7F89480912C0490912D04DC
:1034E000A0912E04B0912F042FBF08952FB7F89408
:1034F00060912C0470912D0480912E0490912F04E2
:103500002FBF08959C014FB7F89480912C0490919F
:103510002D04A0912E04B0912F044FBF821B930B5A
:10352000089578941F920F920FB60F9211248F93E3
:103530009F93AF93BF9380912C0490912D04A09101
:103540002E04B0912F040196A11DB11D80932C046F
:1035500090932D04A0932E04B0932F04BF91AF91AC
:103560009F918F910F900FBE0F901F901895109202
:1035700030041092310410923204109233040895F2
:10358000CF92DF92EF92FF926B017C010E945C0769
:1035900081110EC00E94761AC61AD70AE80AF90AE3
:1035A000C0923004D0923104E0923204F09233049D
:1035B000FF90EF90DF90CF9008950F931F930E949C
:1035C0005C07882321F01F910F910C94761A0E94BA
:1035D000761A009130041091310420913204309118
:1035E0003304600F711F821F931F1F910F91089565
:1035F00087E797E790930108809300089AE088E1B5
:103600000FB6F894A895809360000FBE9093600069
:10361000FFCF909337018093360108950E94E818F8
:10362000811102C00E948F190E94F3188093040236
:103630000E94FB1890933504809334040E94F7187D
:10364000682F70E080E090E00E946A166091EF01C0
:103650007091F0018091F1019091F2010C94A21609
:1036600080910E02089508950895CF93DF9321E08D
:103670002093E9002FEF3091E800215035FD06C07E
:1036800035ED3A95F1F700002111F5CF2091E800D2
:1036900025FF14C0EC0140E050E068E070E00E94BB
:1036A000E11C8091E8008E778093E80088E0FE01BD
:1036B000A6E0B2E001900D928A95E1F7DF91CF91FB
:1036C0000895089580913904811109C00E94721EE5
:1036D0000E94CF1E8091E20084608093E2000895F2
:1036E00010923904089508950895089542E061EC18
:1036F00081E00C94EB1D80913C04833009F460C0A0
:1037000030F4813071F0823009F499C008958A3024
:1037100009F485C08B3009F46BC0893009F0A7C06B
:1037200020C080913B04813A09F0A1C08091E8005B
:10373000877F8093E80080913F0490914004892B1B
:1037400021F468E086E092E003C060E080E090E071
:1037500070E00E942C1D8091E8008B778093E80038
:10376000089580913B04813209F081C080913F042B
:1037700090914004892B09F07AC08091E800877FFE
:103780008093E8008091E80082FD05C080913A04B2
:103790008111F8CF6CC02091F3008091F20090E08D
:1037A000922B029729F48091F1008B7F813021F4D4
:1037B0008091F10080930E028091E8008B7753C0D6
:1037C00080913B04813A09F052C080913F0490916E
:1037D0004004892B09F04BC08091E800877F8093DB
:1037E000E8008091E80080FFFCCF80911C0136C08A
:1037F00080913B048132D9F580913F04909140043F
:10380000892BA9F58091E800877F8093E8000E94CA
:10381000201E80913D0480931C010C94F112809134
:103820003B04813221F58091E800877F8093E80096
:103830000E94201E80913E0480930F020895809183
:103840003B04813AA1F48091E800877F8093E800EF
:103850008091E80080FFFCCF80910F028093F100FF
:103860008091E8008E778093E8000C94201E0895E4
:1038700084B7877F84BF0FB6F894A89580916000C5
:10388000886180936000109260000FBE90E080E835
:103890000FB6F89480936100909361000FBE0E9470
:1038A000290F0E94721E0E94CF1E8091E200846048
:1038B0008093E20078940E9464210E94330F82E199
:1038C00091E00E94B80E80913A048530A9F480916D
:1038D0003A04853079F40E94001A809138048823D4
:1038E000B1F30E94E819882391F30E94CB1C0E9437
:1038F000F112EDCF0E94301A0E94400F0E941D0F5E
:103900000E941C0FE0CF0C94851C292F33272330F5
:103910003105C1F058F42130310579F022303105FC
:1039200091F582E290E026E735E031C021323105A1
:10393000E1F02232310501F126C082E190E028E970
:1039400035E025C099278130910549F028F002978C
:10395000D1F4E0E5F5E005C0E2E7F5E002C0E0E61D
:10396000F5E0849190E09F0112C0672B61F489E03B
:1039700090E028E835E00BC0672B29F480E490E064
:103980002AEA35E004C080E090E020E030E0FA016F
:1039900031832083089580E189BD82E189BD09B426
:1039A00000FEFDCF8091D8008F7D8093D80080915C
:1039B000E00082608093E0008091E00081FDFCCF18
:1039C0000895CF92DF92EF92FF920F931F93CF93C0
:1039D000DF93EC018B017A010E943F1E811133C0FD
:1039E000E114F10439F0F70180819181081B190B72
:1039F000C80FD91FC12CD12C0115110519F18091C7
:103A0000E80085FD16C08091E8008E778093E8007D
:103A1000E114F10449F0F70180819181C80ED91EAB
:103A2000D182C08285E00FC00E943F1E882321F30F
:103A30000AC089918093F10001501109FFEFCF1A5C
:103A4000DF0ADACF80E0DF91CF911F910F91FF90D5
:103A5000EF90DF90CF90089520914104309142047F
:103A60002617370748F06115710539F42091E800F1
:103A70002E772093E80001C0B901FC0120E0611518
:103A8000710579F180913A048823F1F18530F1F1E3
:103A90008091E80083FD3CC08091E80082FD2EC04B
:103AA0008091E80080FFEBCF2091F3008091F2003D
:103AB00090E0922B6115710551F08830910538F432
:103AC00021912093F100615071090196F3CF21E01B
:103AD000089709F020E08091E8008E778093E80055
:103AE000CECF2111CFCF0AC080913A04882361F054
:103AF000853061F08091E80083FD0AC08091E80084
:103B000082FFF2CF80E0089582E0089583E0089577
:103B100081E008952091410430914204261737072F
:103B200048F06115710539F42091E8002E77209353
:103B3000E80001C0B901FC0120E06115710591F1B7
:103B400080913A04882309F440C0853009F43FC0CD
:103B50008091E80083FD3DC08091E80082FD2FC088
:103B60008091E80080FFE9CF2091F3008091F2007E
:103B700090E0922B6115710559F08830910540F461
:103B800024912093F1003196615071090196F2CF92
:103B900021E0089709F020E08091E8008E7780937B
:103BA000E800CBCF2111CCCF0AC080913A04882302
:103BB00061F0853061F08091E80083FD0AC080915A
:103BC000E80082FFF2CF80E0089582E0089583E06C
:103BD000089581E00895982F973068F59093E90053
:103BE000981739F07091EC002091ED005091F000A1
:103BF00003C0242F762F50E021FD02C09F5FECCF41
:103C00003091EB003E7F3093EB003091ED003D7F33
:103C10003093ED003091EB0031603093EB00709306
:103C2000EC002093ED005093F0002091EE0027FD72
:103C3000E5CF80E008958F708093E90081E00895DA
:103C400080913B0487FF11C08091E80082FD05C090
:103C500080913A048111F8CF11C08091E8008B77F0
:103C60000BC080913A04882349F08091E80080FFDE
:103C7000F8CF8091E8008E778093E8000895209136
:103C8000E4003091E50095E64091EC00842F8170CE
:103C900040FF23C08091E80080FD1DC080913A0460
:103CA000882399F0853099F08091EB0085FD11C053
:103CB0004091E4005091E5002417350729F3915015
:103CC00011F09A01E1CF84E0089582E0089583E045
:103CD000089581E0089580E008954091E80042FF52
:103CE000DDCF08950E94E01E0E94E81EE0EEF0E0A5
:103CF000808181608083E8EDF0E080818F77808330
:103D000019BCA7EDB0E08C918E7F8C9380818F7E63
:103D100080831092390408950F931F93CF93DF93FC
:103D20000E94E01E0E94E81EC8EDD0E088818F77D7
:103D3000888388818068888388818F7D888319BC87
:103D400010923A04109236041092380410923704FC
:103D500000EE10E0F80180818B7F80838881816094
:103D6000888342E060E080E00E94EB1DE1EEF0E03D
:103D700080818E7F8083E2EEF0E0808181608083AD
:103D8000808188608083F80180818E7F8083888134
:103D900080618883DF91CF911F910F910895E8EDA5
:103DA000F0E080818F7E8083E7EDF0E080818160AC
:103DB000808384E082BF81E0809339040C948C1E60
:103DC000E8EDF0E080818E7F80831092E20008951C
:103DD0001092DA001092E10008951F920F920FB630
:103DE0000F9211242F933F934F935F936F937F9381
:103DF0008F939F93AF93BF93EF93FF938091E100D5
:103E000082FF0BC08091E20082FF07C08091E10039
:103E10008B7F8093E1000E9463218091DA0080FF14
:103E20001FC08091D80080FF1BC08091DA008E7F78
:103E30008093DA008091D90080FF0DC080E189BDB8
:103E400082E189BD09B400FEFDCF81E080933A0490
:103E50000E94621B05C019BC10923A040E94701B9C
:103E60008091E10080FF19C08091E20080FF15C0C1
:103E70008091E2008E7F8093E2008091E200806179
:103E80008093E2008091D80080628093D80019BCB2
:103E900085E080933A040E94741B8091E10084FFC6
:103EA00030C08091E20084FF2CC080E189BD82E1B6
:103EB00089BD09B400FEFDCF8091D8008F7D80932D
:103EC000D8008091E1008F7E8093E1008091E20034
:103ED0008F7E8093E2008091E20081608093E20017
:103EE00080913604882311F084E007C08091E300BC
:103EF00087FD02C081E001C083E080933A040E9404
:103F0000751B8091E10083FF29C08091E20083FF4F
:103F100025C08091E100877F8093E10082E080935B
:103F20003A04109236048091E1008E7F8093E10084
:103F30008091E2008E7F8093E2008091E2008061B8
:103F40008093E20042E060E080E00E94EB1D8091FF
:103F5000F00088608093F0000E94731BFF91EF9146
:103F6000BF91AF919F918F917F916F915F914F9191
:103F70003F912F910F900FBE0F901F9018951F9299
:103F80000F920FB60F9211242F933F934F935F938D
:103F90006F937F938F939F93AF93BF93CF93DF9351
:103FA000EF93FF93C091E900CF708091EC00D82F80
:103FB000D17080FDD0E81092E9008091F000877FF9
:103FC0008093F00078940E9403201092E900809181
:103FD000F00088608093F000CD2BCF70C093E90093
:103FE000FF91EF91DF91CF91BF91AF919F918F9111
:103FF0007F916F915F914F913F912F910F900FBEE5
:104000000F901F9018951F93CF93DF93CDB7DEB716
:10401000AA970FB6F894DEBF0FBECDBFEBE3F4E076
:104020008091F100819324E0E334F207C9F70E9404
:104030007B1B8091E80083FF2EC180913B0490910F
:104040003C04492F50E04A30510508F024C1FA01E0
:10405000E059FF4F0C947F21803821F0823809F01D
:104060001AC108C08091370490913804992389F0CF
:1040700082600FC080913F048F70873008F00BC1C1
:104080008093E9008091EB0085FB882780F91092EE
:10409000E9009091E800977F9093E8008093F10009
:1040A0001092F100D1C0282F2D7F09F0F4C0882391
:1040B00019F0823061F0EFC080913D04813009F049
:1040C000EAC0933009F080E0809338042EC08091DC
:1040D0003D0481112AC080913F048F702FEF280F7B
:1040E000263008F0D8C08093E9002091EB0020FF33
:1040F0001CC0933021F48091EB00806214C0909139
:10410000EB0090619093EB0021E030E0A90102C048
:10411000440F551F8A95E2F74093EA001092EA0097
:104120008091EB0088608093EB001092E900809111
:10413000E800877F8093E8000E94201EACC08111B8
:10414000AAC010913D041F778091E3008078812BF5
:104150008093E3008091E800877F8093E8000E94CD
:10416000201E8091E80080FFFCCF8091E3008068F2
:104170008093E300111102C082E001C083E08093CC
:104180003A0489C08058823008F085C080913D048F
:1041900090913E048C3D53E0950779F583E08A8346
:1041A0008AE289834FB7F894DE01139620E03EE05F
:1041B00051E2E32FF0E050935700E49120FF03C059
:1041C000E295EF703F5FEF708E2F90E0EA3010F0D5
:1041D000C79601C0C0968D939D932F5F243149F7F8
:1041E0004FBF8091E800877F8093E8006AE270E02B
:1041F000CE0101960E942C1D16C060913F04709163
:104200004004AE014F5F5F4F0E94831CBC01892BAD
:1042100009F441C09091E800977F9093E80089816C
:104220009A810E948A1D8091E8008B778093E80034
:1042300032C0803881F58091E800877F8093E80064
:10424000809136048093F1008091E8008E7772CFE0
:10425000811121C080913D0490913E0499270297DD
:10426000D4F48091E800877F8093E80080913D043A
:10427000809336040E94201E80913604811106C06E
:104280008091E30087FD02C081E001C084E080935B
:104290003A040E94761B8091E80083FF0AC0809157
:1042A000E800877F8093E8008091EB008062809334
:1042B000EB00AA960FB6F894DEBF0FBECDBFDF911C
:1042C000CF911F9108950895CF9380913A04882348
:1042D000A1F0C091E900CF709091EC00892F81701E
:1042E00090FD80E8C82B1092E9008091E80083FDE2
:1042F0000E940320CF70C093E900CF910895EE0F84
:10430000FF1F0590F491E02D0994F999FECF92BD1D
:1043100081BDF89A992780B50895A8E1B0E042E000
:1043200050E00C94B921262FF999FECF92BD81BDA2
:10433000F89A019700B4021639F01FBA20BD0FB6E3
:10434000F894FA9AF99A0FBE08950396272F0E94BF
:1043500094210E949321252F0E949421242F0C94B4
:1043600094210196272F0E9494210C949321DC0123
:10437000CB01FC01F999FECF06C0F2BDE1BDF89A70
:10438000319600B40D9241505040B8F70895F8941A
:02439000FFCF5D
:10439200010021007F2200036801046901056D010B
:1043A200F901301B351B331B611B341B01F6F7313E
:1043B2003332366697C6343500000000000008101C
:0643C200181810080000AD
:00000001FF
