:100000000C940C020C9453020C9453020C94AA0D01
:100010000C9453020C9453020C9453020C9453020C
:100020000C9453020C9453020C943A1F0C940E201F
:100030000C94AD190C9453020C9453020C9453027B
:100040000C9453020C9453020C9453020C945302DC
:100050000C9453020C94041A0C9453020C94530203
:100060000C9453020C9453020C9453020C945302BC
:100070000C9453020C9453020C9453020C945302AC
:100080000C9453020C9453020C9453020C9453029C
:100090000C9453020C9453020C9453020C9453028C
:1000A0000C9453020C9453020C94530229001E002A
:1000B0001F002000210022002B0014001A0008005D
:1000C00015001700E00004001600070009000A00F0
:1000D000E1001D001B000600190005000000015191
:1000E000E300E2002C002F00350027002600250049
:1000F000240023002D00130012000C0018001C0027
:10010000340033000F000E000D000B00E500380036
:10011000370036001000110000000251E7002A00ED
:100120002800300001000100010001000100010071
:1001300001001E021F0220022102220201001E00F5
:100140001F00200021002200010001000100010029
:100150000100010000000100010001000100010098
:10016000010001000100010001000100010027025F
:100170002602250224022302010027002600250072
:1001800024002300010030022F022E02350031022C
:100190000000010001000100010001000100010058
:1001A00001000100010001003A003B003C003D005D
:1001B0003E003F00010001000100010001000100BC
:1001C0000100010001000100010001000000010028
:1001D0000100010001000100010001000100010017
:1001E000010001004500440043004200410040007E
:1001F00000004F005200510050000000010031008B
:1002000030002F002E002E0200000100010001002E
:1002100001000100000000000000000000000000DC
:1002200000000000000000000000000000000000CE
:1002300000000000000000000000000000000000BE
:1002400000000000000001000100010001000000AA
:10025000000000000000000000000000000000009E
:10026000000000000000000000000000000000008E
:10027000000000000000000000000000000000007E
:10028000000001000100010001000000000000006A
:10029000000000002A2B28000000000000000000E1
:1002A0000000000000000029000000002C1E342087
:1002B000212224342627252E362D3738271E1F20AD
:1002C0002122232425263333362E37381F040506F2
:1002D0000708090A0B0C0D0E0F1011121314151636
:1002E0001718191A1B1C1D2F3130232D3504050634
:1002F0000708090A0B0C0D0E0F1011121314151616
:100300001718191A1B1C1D2F3130354C0000000026
:1003100000000000000000000000000000000000DD
:1003200000000000000000000000000000000000CD
:100330007E0F00D4FFFFFFC7000000780E034C00C3
:1003400069006C00790035003800000010036C0073
:1003500069006C00690075006D0073000000040303
:10036000090409024200020100A0FA090400000188
:10037000030101000921110100012240000705814C
:100380000308000A0904010002030000000921110A
:100390000100012222000705820320000107050356
:1003A000032000011201100100000008D8042DEB09
:1003B0000001010200010660FF0961A10109621547
:1003C0000026FF009520750881020963150026FFAD
:1003D00000952075089102C005010906A1010507D5
:1003E00019E029E71500250195087501810295019D
:1003F000750881010507190029FF150026FF0095E2
:1004000006750881000508190129059505750191F2
:1004100002950175039101C011241FBECFEFDAE0F0
:10042000DEBFCDBF04B603FE27C0809106029091C7
:100430000702A0910802B09109028730904BA740B3
:10044000B04BD1F4109206021092070210920802EB
:100450001092090214BE84B7877F84BF0FB6F89448
:10046000A895809160008861809360001092600080
:100470000FBEE0E0F8E3099511E0A0E0B1E0E0E9AB
:10048000F4E402C005900D92A632B107D9F722E03C
:10049000A6E2B1E001C01D92A630B207E1F70E94CA
:1004A000EE1B0C940F220C9400000C94570281E078
:1004B000089581E0089508950C945B021F93CF93F3
:1004C000DF9300D000D00F92CDB7DEB749835A83B7
:1004D0006B833091570189819A8131111DC0662348
:1004E000B9F02223A9F00E941E17182F682F8981C6
:1004F0009A810E94C71669817A81812F0F900F908F
:100500000F900F900F90DF91CF911F910C94CB091A
:100510000E94F516182FEFCF0E941E1769817A816D
:10052000EDCFFC01262F408151816281738184814E
:100530000C945E02CF93DF93EC0160E00E94910285
:10054000BE01DF91CF910C945C028F929F92AF928B
:10055000BF92CF92DF92EF92FF920F931F936B01A6
:100560007C0181E090E0A0E0B0E04C015D0104C0BE
:10057000880C991CAA1CBB1C4A95D2F7B501A40192
:100580004C015D0104C0880C991CAA1CBB1C2A9557
:10059000D2F7482959296A297B2904C0880F991F55
:1005A000AA1FBB1F0A95D2F78A019B010C211D21AE
:1005B0002E213F21041715072607370789F48C29B8
:1005C0009D29AE29BF29BC01CD011F910F91FF903C
:1005D000EF90DF90CF90BF90AF909F908F90089555
:1005E00080959095A095B0958C219D21AE21BF213D
:1005F000EACF0F93382F262F6091B8017091B9017F
:100600008091BA019091BB01042F432F0E94A50253
:100610000F910C9405160E94811A0E945D18811199
:1006200002C00E9401190C94F7050C94FA05089574
:100630000E94BB120E9417032FEF84E39CE021501D
:1006400080409040E1F700C000000C94691A0F93BD
:100650001F93CF93DF93EC0161E00E9491028C0124
:10066000BE010E941308882359F1BE01C8010E94EF
:100670005502882329F1BE01C8010E94020B88237C
:10068000F9F0BE01C8010E94540B8823C9F0BE01D5
:10069000C8010E94770C882399F08A81882339F059
:1006A00001158CE5180751F00F3D1C4579F0CE017E
:1006B000DF91CF911F910F910C9459020E94180362
:1006C00080E0DF91CF911F910F9108950E94011951
:1006D000F7CFDF92EF92FF920F931F93CF93DF93A9
:1006E000E82FF0E0E457FD4FD490282F269526956B
:1006F000269530E0F901E45DFC4F0491877010E02D
:10070000082E02C0159507950A94E2F7017011278B
:10071000F901E45EFC4FE490F12C082E02C0F59440
:10072000E7940A94E2F791E0E922FF24F901E45FFB
:10073000FC4FC491D0E002C0D595C7958A95E2F7E9
:10074000C170DD270115110519F081EE0E9410100E
:10075000E114F10419F086EE0E9410108D2D0E9414
:100760007A10EF2819F086EE0E943B10012B19F049
:1007700081EE0E943B10CD2B51F08CE2DF91CF91A6
:100780001F910F91FF90EF90DF900C947A10DF9102
:10079000CF911F910F91FF90EF90DF900895EF920E
:1007A000FF920F931F93CF93DF93EC01162F0AE074
:1007B0008881882309F454C0813009F04EC08981B2
:1007C000813099F47E0122E0E20EF11C8A810E94C0
:1007D0007A10E7012196812F815050F3EFE9FFE075
:1007E0003197F1F700C00000F7CF823041F47E016D
:1007F00082E0E80EF11C8A810E941010EACF83305B
:1008000041F47E01E2E0EE0EF11C8A810E943B1071
:10081000E0CF843011F02196DDCF2A81229690E03E
:1008200080E0AE014F5F5F4F2053330B2A3031051C
:1008300048F0019778F2EFE9FFE03197F1F700C057
:100840000000F7CF089FB001099F700D1124C90166
:10085000860F971F2981EA01E4CF0E946903BACF6E
:10086000DF91CF911F910F91FF90EF90089560E07D
:100870000C94CF0308950C943A0481E008950C94ED
:100880003D04CF93C82F0E943B048C2FCF910C9432
:100890003F04CF93DF930E94CB090E941C05EC011B
:1008A000811523E5920790F5811532E5930708F04D
:1008B00096C081159042C8F4C11581E0D80788F42C
:1008C000C53AD10548F4C430D10558F4C130D1053A
:1008D00041F0D0E0C0E005C0CE01805E91090897EC
:1008E000C0F7CE01DF91CF910895C11591E5D907E9
:1008F00008F070C0C11520E5D20708F04EC0C11540
:1009000030E4D30730F3DF70D06AEBCF811546E5D2
:100910009407F0F4C11585E5D80708F075C0C11536
:1009200094E5D90708F06BC0CE018370992721E0C8
:1009300030E002C0220F331F8A95E2F7C695C695B4
:1009400090E2C99FE0011124C22BD32BDA68C9CFF2
:1009500081152AE5920778F4811539E5930708F0A7
:100960005EC0811548E5940708F4B3CFD82FCC2793
:10097000C06FD06AB6CF90568115904208F0A9CFCB
:100980008D2F8F710E94B30590E0982F88278827BC
:100990009F719C012C2BE90140C0CE01E4E09695AB
:1009A0008795EA95E1F783702C2F2695269523707D
:1009B00040E2249F90011124382B8C2F8370C1E0DA
:1009C000D0E002C0CC0FDD1F8A95E2F7C22BD32BFB
:1009D000DC6887CFDC2FCC27C16FD06A82CF8370D1
:1009E000992721E030E002C0220F331F8A95E2F7F9
:1009F000C695C69580E2C89FE0011124E7CFDC2FA1
:100A0000CC27C46FD06A6DCF8C2F0E94B305C82F3E
:100A1000D0E0DC2FCC27CC27DF71D06262CF8F7083
:100A20000E94B30534E0D695C7953A95E1F7CF70AB
:100A30009C2FEC01D06955CF82389105B1F1B0F40B
:100A40008133910509F475C048F48932910509F4A0
:100A500069C08A32910509F473C008958533910500
:100A600009F459C08933910501F10895833E910538
:100A7000A9F138F4803E9105F9F0823E910549F1E3
:100A80000895863E9105A9F1873E9105C9F1843EFE
:100A9000910519F52091F80121FF1FC08091F70100
:100AA00084FD14C087EE90E008952091F701237033
:100AB000A1F080EE90E008952091F70120FD47C05D
:100AC0003091F80130FF09C024FF44C090E080E07D
:100AD00004C02091F70122FDF7CF08952091F7017E
:100AE00022FD3BC03091F80130FDE3CF24FFF5CF6C
:100AF000EDCF2091F70123FFF0CF24FDE7CFD2CF38
:100B00002091F70123FD2CC03091F80131FFEECF89
:100B100084EE90E008952091F70125FFDECF89E271
:100B200090E008952091F70125FFD7CF85E390E06D
:100B300008952091F70126FFD0CF8AE290E0089532
:100B40002091F70126FFC9CF81E390E0089589E362
:100B500090E0089583EE90E0089582EE90E008958D
:100B600086EE90E008959091F70192FF06C0282F3D
:100B700028712830F9F4877F846093FF06C0282FFE
:100B800028712831F1F4877E84612091F80120FFDB
:100B900006C0382F38713830D9F4877F816021FF43
:100BA00006C0282F28712831D1F4877E816194FDF9
:100BB000877E0895282F24712430F9F68B7F886072
:100BC000DCCF282F2471243101F78B7E8861DDCFA3
:100BD000382F3171313019F78E7F8860E0CF282FA0
:100BE0002171213121F78E7E8861E1CF08950C9427
:100BF000F60508950C94F905E82FF0E0ED51FE4F4D
:100C000080810895089580EA8A95F1F7089500C0DB
:100C100008950C940306F894E82FE295EF70F0E045
:100C200031A1282F2F7081E090E001C0880F2A9514
:100C3000EAF7982F9095932391A392A1892B82A3F1
:100C40007894089508950E94AB07809100018091E7
:100C5000000195E0811190E09093EE0185E0891B01
:100C60008093ED0186E60E940B0687E90E940B0641
:100C700086EC0E940B0684E30E940B0685E30E942B
:100C80000B0686EF0E940B0687EF0E940B0681E39E
:100C90000E940B0683E30E940B0682E30E940B0670
:100CA00086E30E940B06E9EDF1E0A3EEB1E083EEEE
:100CB00091E011921D928E179F07D9F785E00E944F
:100CC00056070E940B030C94B507FF920F931F93D6
:100CD000CF93DF9300D000D00F92CDB7DEB70E9444
:100CE0008D07F82E6091EE01882309F450C08E0123
:100CF0000F5F1F4F85E0F80111928A95E9F7862F63
:100D000090E0B8018D519E4F0E94AD0C811122C020
:100D1000809128018F5F809328018630B0F1E091A7
:100D2000ED01F0E0ED51FE4FD801CE010696119293
:100D30001D92A817B907D9F70E9415038F2D0F90A0
:100D40000F900F900F900F90DF91CF911F910F9107
:100D5000FF90089510922801A091ED01B0E0AD51EF
:100D6000BE4F9E012A5F3F4FF12C4D91F8019191AA
:100D70008F01491731F0AD0141505109FA019083BB
:100D8000F82E0217130789F7D7CFF12CD5CF70E0D3
:100D90006D517E4F8091ED0190E08D519E4F0E94EC
:100DA000D60C0E942206CACFCF92DF92EF92FF921A
:100DB0000F931F93CF93DF930CE111E089EDE82EA1
:100DC00081E0F82EC0E0CC24C394D12CF8018191AD
:100DD0008F01F894E82FE295EF70F0E021A18F7079
:100DE000A60102C0440F551F8A95E2F7CA01922F4F
:100DF000982B91A392A18095892382A378940E9435
:100E00000706E6E1F1E030E020E0D0E04191A42FD8
:100E1000A295AF70B0E090968C9190E04F7002C0B8
:100E2000959587954A95E2F780FD3CC08C2D022E62
:100E300001C0880F0A94EAF7D82B2F5F3F4F263066
:100E4000310521F7F801319780810E940B060E943D
:100E50000906F7018081D81739F1D08381E0C82BCA
:100E6000FFEFEF1AFF0A41E00132140709F0AECF9D
:100E70006091EE0170E06D517E4F2C2F45E089EDC1
:100E800091E00E9457070E946506C11101C0C82F5A
:100E90008C2FDF91CF911F910F91FF90EF90DF90FA
:100EA000CF90089580E0C8CF80E0D9CF0895FF9219
:100EB0000F931F93CF93DF93F82E092F162FD72F61
:100EC000C42F222349F081E080932B010E94DD1979
:100ED00090932A018093290180912B018823A1F00E
:100EE0008091290190912A010E94F519069760F0DE
:100EF000EF2DF02FA12FBD2FCE0FDF2FD11DEC171F
:100F0000FD0741F410922B01DF91CF911F910F91BA
:100F1000FF90089581918D93F2CF80912C018111E2
:100F200011C08091D80080618093D8008AE18A95B1
:100F3000F1F700C09091D900892F817090FF82E075
:100F400080932C0181E090912C01913009F080E098
:100F500008950C948D070E94A907809300010E94B8
:100F60008D0781110C94A10C08950E948D078111A9
:100F700002C00C94A70C089582E290E00E94CD215B
:100F8000813289F483E290E00E94CD21833059F4CC
:100F900084E290E00E94CD2191E0843009F090E05D
:100FA000892F8170089580E0FCCFCF93C82F6FEF19
:100FB000811161E282E290E00E94DB216FEFC111BA
:100FC00063E083E290E00E94DB216FEFC11164E0F7
:100FD00084E290E0CF910C94DB2180E00E94D50761
:100FE0000C945718089585E290E00E94CD21682F57
:100FF00070E090E080E0089585E290E00C94DB21C1
:101000000E94F2070E94BC0781110CC060E070E0F2
:10101000CB010E94FC070E9443090E942F0A81E035
:101020000C94D5070895CF93FB01C281CC2309F11D
:101030009C0122513F452031310520F582510E940B
:101040003F0AC0E08C2FCF91089581E00E942B16BB
:1010500043E062E081E00E94F902F3CF81E00E9468
:101060004C1643E062E081E00E94F902EBCF82E09F
:10107000F6CF8031FFE59F0789F381319F45B9F3B2
:10108000C1E0E0CF8031EFE59E07F9F281319F4565
:10109000C9F682E0DBCF2FEFFC0120830895EF92A9
:1010A000FF920F931F93CF93DF93EC01062FE881FC
:1010B000E150E33108F05EC0F0E0EF5EFD4D0C94CE
:1010C000C021198289E08A83602FCE01DF91CF9100
:1010D0001F910F91FF90EF900C94EA1A8981823052
:1010E00069F0833071F08130D9F40E94E9190E94CF
:1010F000C6216A837B838C839D83E6CF0E94F3079E
:10110000F6CF7E0182E0E80EF11C10E0812F0E94F4
:10111000FC05F70181937F011F5F1A30B9F7D4CF27
:10112000602FCE010E944B08CFCF89818230C1F75A
:101130006A817B818C819D810E94C6210E94FC076F
:10114000C3CF4B816A8189810E941509982789271D
:1011500098279D838C83B8CF2C813D81322723270C
:1011600032274B816A8189810E942E09ADCF0E946E
:101170004309AACF8FEF8883A7CF0E94D80989831C
:10118000A3CF0E94DA099827892798279A83898311
:101190009BCF6B8170E089819A81AE014C5F5F4F7C
:1011A0009827892798270E94DD098ECF6B8170E0F0
:1011B00089819A81AE014C5F5F4F982789279827D4
:1011C0000E94040A81CF0E942F0A7ECF0E94030949
:1011D000D6CF6B8170E089819A81AE014C5F5F4F01
:1011E0009827892798270E947B096ECF6B8170E032
:1011F00089819A81AE014C5F5F4F98278927982794
:101200000E94A10961CF84E0089550E0440F551F6A
:101210009CE0699F400D511D112498E7899F400D66
:10122000511D1124CA01869608950F931F93CF93E1
:10123000DF930E9405098C010E94CD21C82FD0E0C8
:10124000DC2FCC27C80101960E94CD219E01282BBE
:10125000C901DF91CF911F910F9108950F931F93B3
:10126000CF93DF93122F032F0E940509EC01602F0B
:101270000E94DB21612FCE010196DF91CF911F915A
:101280000F910C94DB21AF92BF92CF92DF92EF923D
:10129000FF921F93CF93DF938CEAC82E80E0D82E65
:1012A000D0E07601C0E014C0F50125913491412FC2
:1012B0006C2F8D2F0E942E0982E0A80EB11C1F5F9B
:1012C000163091F78CE0E80EF11CCF5FCA3019F0B0
:1012D000570110E0E9CFDF5F88E7C80ED11CD4309A
:1012E00001F7DF91CF911F91FF90EF90DF90CF90AA
:1012F000BF90AF900895EF92FF920F931F93CF93FB
:10130000DF93EC018A017C01E60EF71ECE01869682
:10131000CE15DF0539F4DF91CF911F910F91FF902A
:10132000EF900895C03E21E0D20740F40E94CD2105
:10133000F80180830F5F1F4F2196E8CFF8011082DC
:10134000F9CFCF92DF92EF92FF920F931F93CF933B
:10135000DF937C016A018C01060F171FEC01CE019F
:101360008696C017D10749F4DF91CF911F910F9155
:10137000FF90EF90DF90CF900895C03E21E0D2071C
:1013800040F4FE01EE19FF09EC0DFD1D60810E9485
:10139000DB212196E4CF462F843038F47A3028F4CC
:1013A000663018F4672F0C94150990E080E00895DA
:1013B00080E108958AEF91E00895EF92FF920F93F4
:1013C0001F93CF93DF93EC018A017C01E60EF71E99
:1013D000CE018A5F9D4FCE15DF0539F4DF91CF91A5
:1013E0001F910F91FF90EF900895CA3F21E0D2071F
:1013F00040F40E94CD21F80180830F5F1F4F21969A
:10140000E7CFF8011082F9CFCF92DF92EF92FF92EF
:101410000F931F93CF93DF937C016A018C01060F1A
:10142000171FEC01CE018A5F9D4FC017D10749F409
:10143000DF91CF911F910F91FF90EF90DF90CF90B0
:101440000895CA3F21E0D20740F4FE01EE19FF09DA
:10145000EC0DFD1D60810E94DB212196E3CFCF932F
:10146000DF93C6E0D2E060E0CE010E94DB2121964E
:10147000C11584E0D807B9F7DF91CF910895DF92C5
:10148000EF92FF920F931F93CF93DF9300D000D082
:10149000CDB7DEB7F82E8FE08F1540F08FEF93E0D9
:1014A0000E94CD2106E012E08823C1F00F900F903A
:1014B0000F900F90DF91CF911F910F91FF90EF90C0
:1014C000DF900895011584E0180781F3C8010E9498
:1014D000CD21811101C0FA940F5F1F4FF110F2CF9F
:1014E00019821A821B821C82DD24D39478018FEF2B
:1014F000E81AF80AC8010E94CD2189831A8288233C
:10150000A9F29FEF980F933078F48A83D9820E5F07
:101510001F4FC7010E94CD218B83882339F2CE0152
:1015200001960E943704E2CF8701F9CF0F931F93F2
:10153000CF93DF93C42FD22FFC0182818823C9F07F
:1015400040932F010E94DD1990932E0180932D016D
:1015500080E28C0F883008F050C0C77081E001C075
:10156000880FCA95EAF7DF91CF911F910F910C94E4
:10157000821010912F01141335C080912D0190918C
:101580002E010E94F519883C910560F5C0E2CD0F4F
:101590001D17B9F080E2810F883040F4177081E0A8
:1015A00001C0880F1A95EAF70E948910C83048F4E4
:1015B00081E09D2F977001C0880F9A95EAF70E94ED
:1015C0008210802F0E947A10C830B8F4D77081E062
:1015D00001C0880FDA95EAF7DF91CF911F910F9143
:1015E0000C94891080E28C0F883038F4C77081E049
:1015F00001C0880FCA95EAF7EFCFDF91CF911F9115
:101600000F9108950F939C01CB01243F4CE53407C3
:1016100059F1A8F4293DFCE53F0701F12A3D4CE5CD
:101620003407D1F1283D3C4591F406E221EE41EE2C
:1016300068ED7CE50E94960A80E00F910895263FB0
:10164000FCE53F07E9F0B0F0273F3C45F9F0FC012D
:101650008281882339F110922F01EFCF07E225EE26
:1016600045EE69ED7CE5E6CF06E221EE40EE64EF63
:101670007CE5E0CF07E225EE44EE65EF7CE5DACFCE
:1016800006E221EE42EE66EF7CE5D4CF07E225EEDE
:1016900046EE67EF7CE5CECF08E221E045EE6AED4D
:1016A0007CE5C8CF81E0C9CFCF93DF93EC01FB018C
:1016B0008281882309F419C1C230FCE5DF07C0F13B
:1016C000C6319CE5D90730F09E012B5F3C4529309F
:1016D000310570F50E9470189093F8018093F7011E
:1016E000C031ECE5DE0709F4CFC008F05BC0C830BC
:1016F0008CE5D80709F4B6C088F5C430ECE5DE0700
:1017000009F4A8C0C0F4C2308CE5D80709F49CC025
:101710008091F7018260C330DC4509F498C0809164
:10172000F7019091F8010E947E180E94BB1280E0A0
:10173000DF91CF9108958091F7018061C630ECE58B
:10174000DE0709F484C08091F7018860C730DC456A
:1017500008F47DC08091F701806279C0CC308CE5BF
:10176000D80709F489C070F48091F7018C60CA3001
:10177000ECE5DE0709F46BC008F478C08091F7014E
:101780008E7F65C0CE308CE5D80709F479C0809192
:10179000F7018B7FCF30DC4508F459C08091F70109
:1017A0008F7E55C0CC3FECE5DE0709F457C030F51D
:1017B000C3318CE5D80709F46FC078F4C131ECE58A
:1017C000DE0709F465C0C231DC4509F0A8CF0E94EC
:1017D000BB128091F7018F773AC0C5318CE5D807ED
:1017E00009F462C008F476C08091F8018160CB3FB3
:1017F000DC4509F094CF8093F80191CFC115FDE548
:10180000DF0709F44DC088F48091F8018D7FCE3F49
:101810009CE5D90781F38091F8018E7FCF3FDC45AD
:1018200050F38091F8018360E6CFC230FDE5DF0719
:1018300009F459C008F444C080E0C330DD4509F024
:101840006ECF0E9403196BCF8091F7018160809366
:10185000F70165CF8091F7018460F9CF8091F8019D
:101860008260C9CF8091F7018064F1CF0E94BB12E2
:101870008091F7018068EBCF8091F7018D7FE7CFF2
:101880008091F701877FE3CF8091F7018F7DDFCFD4
:101890008091F7018F7BDBCF8091F701837FD7CFDA
:1018A0008091F8018C7FA7CF8091F70182FB992767
:1018B00090F921E0922790FB82F990FB83F9C7CF42
:1018C0008091F801982F909591708E7F892B90FBD5
:1018D00081F991CF0E94BB129091F701892F97FB5C
:1018E00087F98058B4CF81E0ACCF81E021CFCF938E
:1018F000DF93EB0186319C4511F50E94B3179A8165
:10190000992399F08A7A91E009F490E0909330015C
:10191000811109C089E20E948E170E94F21780E0AF
:10192000DF91CF91089585E3F6CF80913001811149
:1019300004C089E20E949517F0CF85E3FBCF81E0D8
:10194000EFCF61E070E081E091E00C94570D61E031
:1019500070E081E091E00C94600DCF93DF93D62F7F
:10196000C72F90E080E00E94390E0097E9F4ED2F38
:10197000FC2FDC01AA5CBE4F2C912193019685308F
:101980009105B9F70E944E1A6E5F7F4F8F4F9F4FA0
:101990006093320170933301809334019093350149
:1019A00081E0DF91CF91089580E0FBCFCF93DF936B
:1019B000D62FC72F6091320170913301809134018D
:1019C000909135010E94311AED2FFC2F90E080E0BC
:1019D0002191DC01AA5CBE4F2C93019685309105C4
:1019E000B9F7DF91CF9108958EE14A9B02C08150F3
:1019F000E1F74A9BFECF08955A9880E28A95F1F765
:101A00005A9A0895FC013BE03A95F1F720E090E006
:101A100080E031E040E14A95F1F7880F4A9B02C02F
:101A20008160232742E04A95F1F7000040E14A95A2
:101A3000F1F79F5F6913EECF90E19A95F1F799B1B5
:101A400032E03A95F1F7000040E14A95F1F792FB58
:101A5000992790F992272081920F90830895EF9211
:101A6000FF920F931F93CF93DF930F92CDB7DEB703
:101A700019828C017C01E60EF11C0E151F0561F424
:101A800081E09981911180E00F90DF91CF911F91BA
:101A90000F91FF90EF9008950E94F40C68E0CE0142
:101AA00001960E94020DF80181938F01E6CF909379
:101AB0003D0180933C0160933B01529A5A9A0895EC
:101AC00090933D0180933C0160933B0152985A9A58
:101AD000EA9AE9E6F0E080818F7C80830895615086
:101AE000770B91E001C0990F6A95EAF720E031E0A9
:101AF000911108C0222391F05A9A80E28A95F1F759
:101B00005A980895492F482339F05A9A232740E2DA
:101B10004A95F1F79695ECCF5A98F9CF5A98EDCFB0
:101B2000FF920F931F93CF93DF93EC018C01060F6D
:101B3000111DC017D10731F4DF91CF911F910F9183
:101B4000FF900895F9900E94FC0C68E08F2D0E9490
:101B50006F0DEFCF1F920F920FB60F9211240F93BC
:101B60001F932F933F934F935F936F937F938F9325
:101B70009F93AF93BF93EF93FF93CF93DF930F9216
:101B8000CDB7DEB719820E94F40C67E0CE01019652
:101B90000E94020D082F069506950695982F92959E
:101BA0009570202F2570920F292F2370969596956A
:101BB0008770920F891344C08981811141C080913F
:101BC0003B018017E8F120E12A95F1F75A9A529AE1
:101BD00082E08A95F1F700C0A8E00A9FC0011124B5
:101BE00000913C0110913D01080F191F5A98F8010E
:101BF0006581662321F0868197810E94900D0E9465
:101C0000FC0CF0E1FA95F1F75A9852985A9A20E1B3
:101C10002A95F1F7D80112966C911297662331F14B
:101C200013968D919C910E942F0DD801ED91FC91FE
:101C3000882311F088E001C082E080830E94F40CC8
:101C40000F90DF91CF91FF91EF91BF91AF919F9155
:101C50008F917F916F915F914F913F912F911F9144
:101C60000F910F900FBE0F901F901895ED91FC9162
:101C7000E1CF0F931F93CF93DF9320913B01281760
:101C800019060CF471C08C0193E0000F111F9A9596
:101C9000E1F7C0913C01D0913D01C00FD11FF894F4
:101CA000529A5A9825E02A95F1F70000982F9695B8
:101CB00095708570980F892F837096959695980FDB
:101CC000092B0E94FC0C00C067E0802F0E946F0D62
:101CD00080E18A95F1F752985A9A4A9B17C087E09B
:101CE00090E04A9915C06D81662321F18E819F8114
:101CF0000E942F0D81111EC0529A5A9AE881F981D3
:101D000082E08083789482E090E00DC000C0E5CF4F
:101D1000019771F4529A5A9AE881F98181E080839F
:101D2000789481E090E0DF91CF911F910F91089519
:101D300000C0D7CF0E94F40C20E22A95F1F75A9800
:101D4000529A80E18A95F1F76A81662321F08B81AE
:101D50009C810E94900D0E94FC0CE881F981108208
:101D6000789490E080E0DFCF84E090E0DCCF909347
:101D70004301809342010895E0914201F0914301B3
:101D8000309721F00190F081E02D099480E00895D2
:101D9000E0914201F0914301309721F00280F381FC
:101DA000E02D0994089520914001309141012817B8
:101DB000390771F09093410180934001E091420115
:101DC000F0914301309721F00680F781E02D0994CE
:101DD000089520913E0130913F012817390771F095
:101DE00090933F0180933E01E0914201F0914301C5
:101DF000309721F00084F185E02D099408950E9428
:101E0000E9196093530170935401809355019093A5
:101E1000560160934F01709350018093510190934C
:101E20005201089585B7806885BF85B7806885BFF2
:101E30000895089508950C94190F08950C941D0F9A
:101E40000E94120F85E598E10E947A1A0E941A0FEB
:101E50000C941B0F0C948D07089508950E94D419BB
:101E60000E94281A0E9423060E9400080E94951AC8
:101E70000C941E0FAF92BF92CF92DF92EF92FF921F
:101E80000F931F93CF93DF93CDB7DEB72A970FB68B
:101E9000F894DEBF0FBECDBF0E942C0F0E942D0F05
:101EA0000E94D40681110E94FF0E85E4A82E81E0D5
:101EB000B82E10E000E0C02E802F0E94FC05E82E16
:101EC000F501F1905F01F81609F44BC08091CD0146
:101ED00081FD0E9402068F2D8E25D12CFF24F394C4
:101EE000982F9F21C9F10E942A0F882399F0DE8242
:101EF000CF82EF2081E009F480E088870E94DD191D
:101F00008160782F9A8789874E815F8168858A856D
:101F10000E94D90FF801EB5BFE4F8081F826F0821A
:101F20000E94BC0E90914401891791F10E94BC0E51
:101F3000809344012A960FB6F894DEBF0FBECDBF42
:101F4000DF91CF911F910F91FF90EF90DF90CF9095
:101F5000BF90AF900C944104D394FF0CF6E0DF12D5
:101F6000BFCF0F5F1F4F0A30110509F0A4CF8FEFCD
:101F700089838A831B820E94DD198160782F9D836B
:101F80008C8349815A816B818D810E94D90FC8CF82
:101F90002A960FB6F894DEBF0FBECDBFDF91CF916A
:101FA0001F910F91FF90EF90DF90CF90BF90AF9077
:101FB0000895DF92EF92FF920F931F93CF93DF93D9
:101FC000CDB7DEB72B970FB6F894DEBF0FBECDBFEF
:101FD0007A878B87F42E052F162FE72ED82E6111C6
:101FE0000E94D3171E821D827E2DEC82DD824F2D32
:101FF000502F612F8D2D9E812B960FB6F894DEBF4A
:102000000FBECDBFDF91CF911F910F91FF90EF9049
:10201000DF900C941F15FC01808191810C94601756
:10202000CF93C82F882329F18CEF8C0F813AA0F42D
:102030006C2F8091090190910A010E941A1988233E
:1020400029F08C2F0E9495170E94F2178C2F0E9466
:102050008E17CF910C94F21780E28C0F883048F4E1
:10206000C77081E001C0880FCA95EAF70E94B617D1
:10207000F0CFCF910895882329F19CEF980F913AE2
:1020800020F40E9495170C94F21790E2980F983064
:1020900050F4877091E001C0990F8A95EAF7892F73
:1020A0000E94BC17F0CF9BE5980F933020F490E08E
:1020B00080E00C94D30E885A873120F490E080E0C1
:1020C0000C94E90E08951F93CF93DF93182FEB0123
:1020D0000E941010209731F4812FDF91CF911F9132
:1020E0000C943B108FE99FE00197F1F700C00000CE
:1020F0002197F0CF70E060E0893311F460E570E083
:102100000C946310882321F00E94B6170C94F217E8
:102110000895882321F00E94BC170C94F2170895AB
:10212000BF92CF92DF92EF92FF920F931F93CF93C4
:10213000DF936C01D62FC72FFC0102811581129508
:102140001F700E94AC17E82E8823A1F0E02E002318
:1021500089F08C2F807F803429F080E28D0FE12C74
:10216000883040F082E00E943D180E94AC1791E058
:10217000E82EE926BC2EB2949FE0B922FBE0FB15C5
:1021800098F1EB2DF0E0EC5DFD4D0C94C0211C2F7F
:102190001F70C07F11F01295107F0023A9F011234A
:1021A00059F080E28D0F883010F0D11109C0812FD5
:1021B0000E94B6170E94F2178D2F0E94101014C0B3
:1021C000812F0E94C617F6CF8D2F0E943B1011233E
:1021D00059F080E28D0F883010F0D1112CC0812F82
:1021E0000E94BC170E94F2172B2D2850330B24306D
:1021F000310520F40E94BC0E0E944104EE2009F437
:1022000067C10E94A81780FD63C1F60112820E9477
:10221000A2170E942B16C6010E9489120E94A217C3
:10222000DF91CF911F910F91FF90EF90DF90CF90B2
:10223000BF900C944C16812F0E94CC17D3CF2C2F1B
:102240002F70F22EC07FC03219F0F29480EFF82286
:10225000DD2369F0D13049F1002391F1112351F1CF
:10226000F601858180FFA8CF8F70858323C000236E
:1022700081F0111106C00E94D9178F290E94821087
:10228000B3CF1130C1F70E94D9178F290E94DF17F1
:10229000ABCF111106C00E94E8178F2D0E94891044
:1022A000A3CF113009F4A0CFF6CF002329F01630C8
:1022B00008F09ACF8F2DE2CF153008F095CFEDCFF3
:1022C000112359F3D93349F4FFEF27EE33E0F150EE
:1022D00020403040E1F700C000008D2F0E943B10ED
:1022E00083CF8C2F837009F041C001117DCF4D2F1A
:1022F000429546954770440F440F0D2F0F7010E024
:1023000030E020E0042E04C0000F111F221F331FF5
:102310000A94D2F760E070E0CB01D4FF0FC06FE009
:1023200070E080E090E004C0660F771F881F991F5F
:102330004A95D2F76095709580959095C695C6950B
:10234000C370602B712B822B932BC23049F058F451
:10235000C13019F00E94DD1547CF0E94CB1544CF44
:102360000E94EF1541CF0E94C9153ECF86950023EC
:1023700011F08C2F8170882309F436CF4D2F4295B0
:1023800046954770440F440F0D2F0F7010E030E05A
:1023900020E0042E04C0000F111F221F331F0A94D7
:1023A000D2F760E070E0CB01D4FF0FC06FE070E0C7
:1023B00080E090E004C0660F771F881F991F4A9540
:1023C000D2F76095709580959095C695C695C37027
:1023D000602B712B822B932BC23049F058F4C13003
:1023E00019F00E94A21600CF0E949016FDCE0E9406
:1023F000B416FACE0E940516F7CECF70002329F04E
:102400008C2F0E942B168D2F39CF8D2F0E94891073
:102410008C2F0E944C16E8CED23F89F160F4D03F59
:10242000C9F0D13F29F1002309F442C01111C4CEF3
:102430008C2F8F7121C0D33F39F1D43FA1F70023F6
:1024400069F1CF718C2F0E942B1663E08C2F0E94B4
:102450002818CACE002341F0153008F0C5CE8C2FC5
:102460008F710E946F16C0CE163008F0BDCEF7CF28
:102470008C2F8F71002369F20E942B16B5CE8C2F02
:102480008F710023C9F3C5CF002329F08C2F8F71E2
:102490000E941616A9CE0E941116A6CE81E00E94B7
:1024A0003D18123008F4A0CE82E00E943D189CCE68
:1024B000112359F0D93309F010CF8FEF97EEE3E0F5
:1024C00081509040E040E1F706CF8C2F8F71A1CF73
:1024D000DF91CF911F910F91FF90EF90DF90CF9000
:1024E000BF9008950F931F93CF93DF93EC01688102
:1024F00079818A810E946A178C010E94C6160E9407
:10250000C815B801CE01DF91CF911F910F910C94A6
:102510009010CF93DF93EC018B819C81892B29F064
:102520008881998189238F3F59F4DF91CF91089554
:10253000CE010E947212CE01DF91CF910C949A02CB
:10254000CE010E9427038111F3CF0E94AC1788238C
:1025500061F38A81882349F382E0DF91CF910C9463
:102560003D180E94D3170E94D6170C94F2170E94B0
:102570009C170C94B1120E94C3170C94B712E92F48
:10258000E295EF70E250EE3070F4F0E0E05DFD4D6A
:102590000C94C021803F19F020F4883E20F481E0A3
:1025A0000895843FE1F380E00895883EC0F3813FC1
:1025B000D1F7F5CF93FB882780F908950E94601723
:1025C0000C94BF12CF93DF9300D000D00F92CDB701
:1025D000DEB70F900F900F900F900F90DF91CF917B
:1025E0000895CF93DF9300D000D000D0CDB7DEB7F1
:1025F00026960FB6F894DEBF0FBECDBFDF91CF9108
:1026000008951F93CF93DF93C091580116E08091F6
:1026100059018C1304C0DF91CF911F910895D0E030
:102620001C9FF0011D9FF00D1124E65AFE4F4081C2
:10263000518162817381848195810E94F11221967A
:10264000C770E5CF40918A0150918B0160918C0158
:1026500070918D0180918E0190918F010C94F112F7
:102660001F93CF93DF9380918F01807FA9F4809196
:102670008C01882389F080915801C09159016091A3
:102680008A0170918B01A0918D01B0918E01D62F9E
:10269000D72316E0C81304C0DF91CF911F9108958E
:1026A00090E0109711F0DF3F19F401968770F2CF98
:1026B000189F9001199F300D1124F901E65AFE4F21
:1026C00041814713F2CF40814613EFCF4281411140
:1026D000ECCF438154814A1B5B0B483C510528F7E2
:1026E00080918F018F70806180938F01F901E15A91
:1026F000FE4F80818F70806180838AE891E00E9424
:102700008912DF91CF911F910C940113AF92BF9268
:10271000CF92DF92EF92FF920F931F93CF93DF93AD
:10272000CDB7DEB761970FB6F894DEBF0FBECDBF51
:102730008C0185E0F801DE011D9601900D928A95CD
:10274000E1F7F80140815181E2808AE8C82E81E0FA
:10275000D82E60918D0170918E016115710509F47B
:102760004FC190918A0120918B01892F82238F3F45
:1027700009F446C1A380B480F0908C01F501E61BFA
:10278000F70BFF2009F40AC180918F01382F307FA9
:10279000E83CF10508F0C0C0311179C0FE2C2513CA
:1027A00023C0941321C0E1101FC08F7080618093FB
:1027B0008F010E942213C6010E94891280918F010D
:1027C000F80185838F2D61960FB6F894DEBF0FBE9A
:1027D000CDBFDF91CF911F910F91FF90EF90DF90D0
:1027E000CF90BF90AF900895AB2829F0842F852318
:1027F0008F3F09F021C180E0F82FF170DF2E80FFBC
:102800003CC0809158012091590136E0821315C0D7
:102810004D875E878D859E850E946017292F2295A2
:102820002F702230F0F0243018F59F70F1F0F8018D
:102830009581907FD1F4D12C1EC090E0389FF0019B
:10284000399FF00D1124E65AFE4F6181651306C0D1
:102850006081641303C062816E110FC0019687709E
:10286000D5CF9F7011F0882331F3805E883018F344
:10287000C8010E948912FD2CA5CFEE2009F4A2CF39
:1028800080918F01816080938F01F12C9BCF251364
:1028900014C0941312C0E11010C0F8018583C80160
:1028A0000E94891286E0F801AAE8B1E001900D9239
:1028B0008A95E1F70E94221385CF4D875E878D852B
:1028C0009E850E94DE12882319F1EE2009F1809185
:1028D0008F01803270F020918A0130918B0138870E
:1028E0002F831986BB86AA868C87CE0107960E9405
:1028F000891286E0F801AAE8B1E001900D928A956C
:10290000E1F70E9430130E942213FF24F3945ACF60
:10291000C8010E948912F9CF311113C07A2DB98AEA
:10292000A88A6E2D89890E94E2128AE891E00E94AD
:10293000891286E0F60111928A95E9F70E94221326
:10294000A4CF25130FC094130DC0E1100BC0F801E4
:102950008583C8010E94891286E0F60111928A954A
:10296000E9F730CF4D875E878D859E850E94DE1208
:10297000882371F2EE2061F280918F01803208F499
:10298000B8CF20918A0130918B013A8329831B8231
:10299000BD82AC828E83CE010196A9CFE83CF105C1
:1029A00010F5FE2CEE2009F4B3CF25130BC09413C1
:1029B00009C086E0F801AAE8B1E001900D928A957D
:1029C000E1F700CF4D875E878D859E850E94DE12E0
:1029D00081118FCF80918F01816080938F01C80119
:1029E0000E948912EFCE7A2DB98AA88A6E2D898924
:1029F0000E94E21286E0F60111928A95E9F75ACF19
:102A0000EE2009F485CF4D875E878D859E850E94D7
:102A1000DE12F82E882309F47BCF86E0F801AAE8BD
:102A2000B1E001900D928A95E1F78AE891E00E9469
:102A30000B100E9430133ECF81E08E25DDCE1F9318
:102A4000CF93DF93CDB7DEB72C970FB6F894DEBFE8
:102A50000FBECDBF4F83588769877A878B879C8746
:102A6000CE0107960E948613882369F08A859B858C
:102A7000892B39F04F815885842F85238F3F09F0AA
:102A800071C016E05FC086E0FE013796DE01119648
:102A900001900D928A95E1F78A859B85892B89F3B0
:102AA0008F81988589238F3F61F32091590130E010
:102AB000C901019687709927409158014817190656
:102AC00071F40E94BB12109259011092580186E0D5
:102AD000EAE8F1E0DF011D928A95E9F7D2CF96E0AE
:102AE000929FD001939FB00D1124A65ABE4FFE01B4
:102AF000319601900D929A95E1F7809359010E94C9
:102B00000113BFCF819FC0011124865A9E4F0E949E
:102B100086138823E9F0E09158011E9FF0011124EB
:102B2000E65AFE4F40815181628173818481958193
:102B30000E94F1128091580190E0019687709927C8
:102B40008093580180915801909159018913DACFEF
:102B50002C960FB6F894DEBF0FBECDBFDF91CF919C
:102B60001F91089569857A858B859C850E94F11255
:102B700088CF08950C94B9150E94BA156093BC01D2
:102B80007093BD018093BE019093BF010C94B1126C
:102B900008950C94BC150F931F930091BC011091E4
:102BA000BD012091BE013091BF01602B712B822BA2
:102BB000932B1F910F910C94BC150F931F930091B1
:102BC000BC011091BD012091BE013091BF01602375
:102BD0007123822393231F910F910C94BC150F93A3
:102BE0001F930091BC011091BD012091BE01309155
:102BF000BF0160277127822793271F910F910C94A3
:102C0000BC150C94B9150C9401160E940316609320
:102C1000B8017093B9018093BA019093BB010C94F1
:102C2000B11260E070E0CB010C9405160F931F9376
:102C300041E050E060E070E08A019B0104C0000FB9
:102C4000111F221F331F8A95D2F7C901B8011F91A6
:102C50000F910C9405160F931F9341E050E060E034
:102C600070E004C0440F551F661F771F8A95D2F786
:102C70008091B8019091B901A091BA01B091BB01C6
:102C80008A019B01082B192B2A2B3B2BC901B80168
:102C90001F910F910C9405160F931F9341E050E084
:102CA00060E070E004C0440F551F661F771F8A95CF
:102CB000D2F7CB01BA0160957095809590950091FF
:102CC000B8011091B9012091BA013091BB01602384
:102CD0007123822393231F910F910C9405160F9358
:102CE0001F9341E050E060E070E004C0440F551FC6
:102CF000661F771F8A95D2F78091B8019091B9012C
:102D0000A091BA01B091BB018A019B010827192744
:102D10002A273B27C901B8011F910F910C94051672
:102D20000F931F930091B8011091B9012091BA013E
:102D30003091BB01602B712B822B932B1F910F9134
:102D40000C9405160F931F930091B8011091B901CF
:102D50002091BA013091BB01602371238223932318
:102D60001F910F910C9405160F931F930091B801BA
:102D70001091B9012091BA013091BB0160277127F0
:102D8000822793271F910F910C9405160895E92F20
:102D9000EE0FE90FEE0F8E0F982F977041E001C0F4
:102DA000440F9A95EAF786958695869595E0899FD2
:102DB000F0011124E057FE4F30E020E070E0519127
:102DC000DF011197CB01022E02C0969587950A94D8
:102DD000E2F7817081958527842385278C932F5F67
:102DE0003F4F2530310559F70895E92FEE0FE90FD0
:102DF000EE0F8E0F982F977086958695869525E015
:102E0000829FF0011124E057FE4F50E040E080E047
:102E1000219130E0092E02C0369527950A94E2F7F9
:102E200021703327042E01C0220F0A94EAF7822B67
:102E30004F5F5F4F4530510559F70895BF92CF92CC
:102E4000DF92EF92FF920F931F93CF93DF938C014A
:102E5000C090B801D090B901E090BA01F090BB01E8
:102E60008091BC019091BD01A091BE01B091BF01C4
:102E7000C82AD92AEA2AFB2ACFE1D0E0BC2ED70102
:102E8000C6010C2E04C0B695A795979587950A9410
:102E9000D2F780FD0EC0219788F7B12C8B2DDF91E2
:102EA000CF911F910F91FF90EF90DF90CF90BF9047
:102EB0000895B8018C2F0E944904019761F3EECF69
:102EC000CF93DF93EC010E941E17BE01DF91CF91DB
:102ED0000C9449041F93CF93DF93EB01909157011A
:102EE000992331F0CB01DF91CF911F910C946017A2
:102EF000882379F0CB010E941E17182F682FCE016E
:102F00000E94C716BE01812FDF91CF911F910C94B3
:102F10004904CB010E94F516182FF4CF682F809139
:102F2000090190910A010C945019682F80910901B0
:102F300090910A010C9452198091090190910A0113
:102F40000C9454198091C0018595859585950895B7
:102F50008091C001877008959091C001977081E0C1
:102F600009F480E008958091CC0108959091CC01FE
:102F7000892B8093CC01089580959091CC01982362
:102F80009093CC0108951092CC0108959091CB01BB
:102F9000892B8093CB01089580959091CB01982344
:102FA0009093CB0108951092CB0108951092CA011D
:102FB00008958091C101089508950C94DC179091B3
:102FC000C101981721F08093C1010C94DD17089579
:102FD0008091C101882329F01092C10180E00C94F6
:102FE000DD170895E0910901F0910A018091CC016B
:102FF0008083E0910901F0910A0180819091CB01D9
:10300000892B8083E0910901F0910A0180819091E0
:10301000CA01892B80839091C101992381F0E091AD
:103020000901F0910A018081892B80838091090137
:1030300090910A010E94081981110E94E81780915D
:10304000090190910A010C94C80E08950C9425185A
:1030500098E0899F90011124622B6093C0010E9427
:103060002B168091C0018595859585950C94261821
:103070001092C00180E00C9426189091C0018095B8
:1030800089238093C001282F277071F4282F082EE0
:10309000000C330B9217130639F0859585958595AD
:1030A0000E944C160C943818089580E008956FEF34
:1030B0007FEF90E080E00C94F92190E080E00E94A6
:1030C000D52121E08B3E9E4F09F020E0822F08950C
:1030D00082E090E00C94CD2183E090E00C94CD212F
:1030E000CF9384E090E00E94CD21C82F81E290E050
:1030F0000E94CD21982F8C2FCF910895CF93C92F67
:10310000682F84E090E00E94DB216C2F81E290E048
:10311000CF910C94DB21AB01BC018FE090E00C94CB
:10312000ED21AB01BC0183E190E00C94ED2160E066
:1031300070E0CB010C94911860E070E0CB010E942C
:103140008B180C9497186BEE7EEF90E080E00E9455
:10315000F92160E082E090E00E94DB2160E083E002
:1031600090E00E94DB211092BC011092BD011092F0
:10317000BE011092BF0160E084E090E00E94DB217C
:1031800060E081E290E00E94DB2160E085E090E079
:103190000E94DB2160E086E090E00E94DB216FEF7F
:1031A00087E090E00E94DB2140E050E0BA0188E037
:1031B00090E00E94ED2160E08DE090E00E94DB2134
:1031C00040E050E0BA0188E190E00E94ED2160E02B
:1031D00087E190E00E94DB2140E050E0BA018CE101
:1031E00090E00E94ED2160E080E290E00E94DB210F
:1031F00040E050E0BA0188E190E00E94ED210C949B
:103200009C180C94A318682F8EE090E00C94DB219E
:103210009C012E5F3F4FAC01485F5F4F80E0241759
:10322000350709F40895F90191919F019923B9F3A4
:103230008F5FF5CF662349F0FC0132960896219105
:10324000261729F0E817F907D1F780E0089581E003
:1032500008959C01FC0132969FEF80E04191461752
:1032600051F09F3F19F4411101C0982F8F5F8630B4
:10327000A9F79F3F09F40895290F311D97FD3A954D
:10328000F90162830895FC01329608962191261374
:1032900003C0DF0111971C92E817F907B9F70895E9
:1032A0000C9429190C944319029626E0FC01119202
:1032B0002A95E9F70895089508950C945C19809172
:1032C000FD01843049F10E945D1980E00E944104B3
:1032D0001092CE0188E190E020E40FB6F894A89512
:1032E000809360000FBE2093600083B7817F84606D
:1032F00083BF83B7816083BF7894889583B78E7FBF
:1033000083BF0FB6F894A895809160008861809380
:103310006000109260000FBE08950895CF930E9440
:103320005B190E94D4060E948D19C0E08C2F0E9468
:10333000FC05811105C0CF5FCA30C1F7CF91089558
:1033400081E0FCCF08950C94A2190E94BB120E9448
:10335000BC0E0E9441040C94A3191F921FB61F9229
:1033600011248F939F93AF93BF938091CE018111CE
:1033700013C08091EF019091F001A091F101B09103
:10338000F2014196A11DB11D8093EF019093F001D0
:10339000A093F101B093F201BF91AF919F918F91F2
:1033A0001F901FBE1F90189582E084BD93E095BDCD
:1033B0009AEF97BD80936E0008952FB7F89480918F
:1033C000EF019091F001A091F101B091F2012FBFB6
:1033D00008952FB7F8946091EF017091F0018091FA
:1033E000F1019091F2012FBF08959C014FB7F8941D
:1033F0008091EF019091F001A091F101B091F20163
:103400004FBF821B930B089578941F921FB61F9293
:1034100011248F939F93AF93BF938091EF0190916D
:10342000F001A091F101B091F2010196A11DB11D31
:103430008093EF019093F001A093F101B093F2011A
:10344000BF91AF919F918F911F901FBE1F901895B4
:103450001092F3011092F4011092F5011092F6010E
:103460000895CF92DF92EF92FF926B017C010E9450
:103470008D0781110EC00E94E919C61AD70AE80A01
:10348000F90AC092F301D092F401E092F501F092B2
:10349000F601FF90EF90DF90CF9008950F931F9368
:1034A0000E948D07882321F01F910F910C94E91938
:1034B0000E94E9190091F3011091F4012091F501A6
:1034C0003091F601600F711F821F931F1F910F91A2
:1034D000089587E797E7909301088093000888E1B3
:1034E0009AE00FB6F894A895809360000FBE909371
:1034F0006000FFCF909327018093260108950C94DC
:10350000ED070E94D4068FE39CE90197F1F700C014
:1035100000000E94D40680E00E94FC0580FF04C0E9
:103520000E947F1A0C94691A08950E945D188111F7
:1035300002C00E9401190E9468188093CD010E9468
:1035400070189093F8018093F7010E946C18682F0F
:1035500070E090E080E00E94C9156091B801709120
:10356000B9018091BA019091BB010C94031680912E
:10357000D701089508950895CF93DF93EC0181E07A
:103580008093E9008FEF9091E800815095FD06C08F
:1035900095ED9A95F1F700008111F5CF8091E80043
:1035A00085FF14C050E040E068E070E0CE010E946A
:1035B000E01C8091E8008E778093E80088E0FE01AF
:1035C000AFECB1E001900D928A95E1F7DF91CF91D8
:1035D00008950895CF93FC01603221F58091FD019B
:1035E000843001F5C091E900CF702091EC00922F5A
:1035F000917020FD90E8C92B82E08093E9008091D2
:10360000E80080FF0CC050E040E060E270E0CF01D5
:103610000E94E01C8091E8008E778093E800CF70D4
:10362000C093E900CF9108958091FC01811109C0F8
:103630000E94BF1E0E941C1F8091E2008460809344
:10364000E20008951092FC010895089508950895E8
:1036500042E061EC81E00E943B1E42E261EC82E0CC
:103660000E943B1E42E260EC83E00C943B1E809182
:10367000FF01833009F45FC030F48130C1F1823042
:1036800009F49BC008958A3009F487C08B3009F48F
:103690006DC0893009F04EC08091FE01813209F081
:1036A00049C08091020290910302892B09F042C027
:1036B0008091E800877F8093E8008091E80082FF96
:1036C00035C09091F3008091F200029729F4809127
:1036D000F1008B7F813021F48091F1008093D7013C
:1036E0008091E8008B778093E8000C946F1E8091A6
:1036F000FE01813AF9F48091E800877F8093E80029
:103700008091020290910302892B61F468E08FECB2
:1037100091E070E00E947E1D8091E8008B7780939D
:10372000E800089560E090E080E0F3CF8091FD0133
:103730008111C3CF08958091FE01813AD9F780911C
:10374000020290910302892BA9F78091E800877FFC
:103750008093E8008091E80080FFFCCF8091150104
:103760008093F1008091E8008E77BDCF8091FE01BB
:10377000813201F78091020290910302892BD1F6E8
:103780008091E800877F8093E8000E946F1E8091FF
:103790000002809315010C94BB128091FE018132CE
:1037A00049F68091E800877F8093E8000E946F1EB1
:1037B000809101028093D80108958091FE01813AA1
:1037C00009F0B8CF8091E800877F8093E80080916E
:1037D000E80080FFFCCF8091D801C2CFCDB7DEB723
:1037E000A0970FB6F894DEBF0FBECDBF84B7877F1A
:1037F00084BF0FB6F894A89580916000886180938B
:103800006000109260000FBE80E890E00FB6F89460
:1038100080936100909361000FBE0E94200F0E9470
:10382000BF1E0E941C1F8091E20084608093E20012
:1038300078940E94A5210E942E0F8BE091E00E94B7
:10384000B70E13E08091FD018530C9F00E943A0F58
:103850008091FD018430D1F00E942C0F0E942D0F29
:10386000F1CF0E945F198091FB01882341F00E94F3
:103870008E19882321F00E94CA1C0E94BB128091DD
:10388000FD01853071F30E94A519E0CF1093E90086
:103890008091E80082FFE0CF8091E80090E085FF12
:1038A00009C050E040E060E270E0CE0101960E9465
:1038B0002F1D91E08091E8008B778093E800992399
:1038C00059F260E2CE0101960E944F08C5CF0C94D8
:1038D000691CE92FFF27E330F105E9F060F4E130DE
:1038E000F10509F448C0329709F44AC0F0E0E0E07D
:1038F00090E080E025C0E132F10571F1E232F1059E
:10390000A9F76115710509F440C086EB93E06130B9
:103910007105B1F0EBCF992781309105B1F0009797
:1039200049F0029719F7ECE3F3E0E491F0E08CE35F
:1039300093E006C0EEE5F3E0E491F0E08EE593E07D
:10394000DA018D939C93CF010895ECE4F3E0E491C8
:10395000F0E08CE493E0F4CFE9E0F0E084E793E07A
:103960006115710569F3E9E0F0E08DE893E06130FD
:10397000710531F3BBCFE2E1F0E084EA93E0E0CF00
:10398000E2E4F0E082E693E0DBCFE0E4F0E088ED13
:1039900093E0D6CF80E189BD82E189BD09B400FE04
:1039A000FDCF8091D8008F7D8093D8008091E0007A
:1039B00082608093E0008091E00081FDFCCF08955B
:1039C000AF92BF92CF92DF92FF920F931F93CF934C
:1039D000DF936C01EB018A010E948E1EF82E81118B
:1039E00023C00115110539F0F80180819181C81BB0
:1039F000D90BC80ED91EB12CA12C2097A9F080910B
:103A0000E80085FD22C08091E8008E778093E80071
:103A100001151105A1F0F80180819181A80EB91E50
:103A2000B182A08285E0F82E8F2DDF91CF911F917A
:103A30000F91FF90DF90CF90BF90AF9008950E94BC
:103A40008E1E8823D1F2F82EEFCFF60181916F01FF
:103A50008093F1002197FFEFAF1ABF0ACECFAF924C
:103A6000BF92CF92DF92FF920F931F93CF93DF937A
:103A70006C01EB018A010E948E1EF82E811123C079
:103A80000115110539F0F80180819181C81BD90B0E
:103A9000C80ED91EB12CA12C2097A9F08091E80066
:103AA00085FD22C08091E8008B778093E8000115A6
:103AB0001105A1F0F80180819181A80EB91EB18293
:103AC000A08285E0F82E8F2DDF91CF911F910F916D
:103AD000FF90DF90CF90BF90AF9008950E948E1E10
:103AE0008823D1F2F82EEFCF8091F100F601819377
:103AF0006F012197FFEFAF1ABF0ACECFFC01809173
:103B000004029091050286179707A0F061157105D0
:103B100029F49091E8009E779093E80090E0611579
:103B2000710551F4911108C08091E80082FF34C002
:103B300080E00895BC01F2CF8091FD018823C1F19E
:103B40008530C1F18091E80083FD30C08091E800AC
:103B500082FDEACF8091E80080FFE1CF8091F30001
:103B60002091F200382F6115710519F028303105C8
:103B700058F091E02830310509F090E02091E800FC
:103B80002E772093E800CBCF81918093F100615094
:103B900071092F5F3F4FE7CF8091FD01882341F0EE
:103BA000853041F08091E80083FFBECF81E0089529
:103BB00082E0089583E00895FC01809104029091D1
:103BC000050286179707A0F06115710529F4809109
:103BD000E8008E778093E80090E06115710551F45C
:103BE000911108C08091E80082FF35C080E00895FF
:103BF000BC01F2CF8091FD018823C9F18530C9F164
:103C00008091E80083FD31C08091E80082FDEACF19
:103C10008091E80080FFE1CF8091F3002091F200D5
:103C2000382F6115710519F02830310558F091E0F1
:103C30002830310509F090E08091E8008E7780937C
:103C4000E800CBCF84918093F100319661507109E7
:103C50002F5F3F4FE6CF8091FD01882341F08530F3
:103C600041F08091E80083FFBDCF81E0089582E0BC
:103C7000089583E00895982F973028F08F708093EF
:103C8000E90081E008959093E900242F762F50E019
:103C9000981731F07091EC002091ED005091F000F8
:103CA00021FD02C09F5FE8CF3091EB003E7F309353
:103CB000EB003091ED003D7F3093ED003091EB0053
:103CC00031603093EB007093EC002093ED00509343
:103CD000F0002091EE0027FDE5CF80E0089580916F
:103CE000FE0187FF13C08091E80082FF06C080912B
:103CF000E8008B778093E80004C08091FD0181117A
:103D0000F2CF08958091FD018823D9F38091E800D6
:103D100080FFF8CF8091E8008E77ECCF2091E4000F
:103D20003091E50095E6A9012091EC00822F817089
:103D300020FF06C08091E80080FF06C080E0089563
:103D40002091E80022FD1AC08091FD01882389F0AE
:103D5000853089F08091EB0085FD0FC02091E40053
:103D60003091E50042175307F9F29150E1F684E0F3
:103D7000089582E0089583E0089581E008950E9407
:103D80002D1F0E94351FE0EEF0E08081816080836E
:103D9000E8EDF0E080818F77808319BCA7EDB0E07B
:103DA0008C918E7F8C9380818F7E80831092FC011A
:103DB00008950F931F93CF93DF930E942D1F0E94AE
:103DC000351FC8EDD0E088818F778883888180682F
:103DD000888388818F7D888319BC1092FD011092A1
:103DE000F9011092FB011092FA0100EE10E0F801C7
:103DF00080818B7F808388818160888342E060E05E
:103E000080E00E943B1EE1EEF0E080818E7F8083A7
:103E1000E2EEF0E080818160808380818860808331
:103E2000F80180818E7F8083888180618883DF9123
:103E3000CF911F910F910895E8EDF0E080818F7E82
:103E40008083E7EDF0E080818160808384E082BF41
:103E500081E08093FC010C94D91EE8EDF0E08081B4
:103E60008E7F80831092E20008951092DA00109203
:103E7000E10008951F920F920FB60F9211242F9315
:103E80003F934F935F936F937F938F939F93AF93E2
:103E9000BF93EF93FF938091E10082FF0BC080916D
:103EA000E20082FF07C08091E1008B7F8093E100F8
:103EB0000E94A4218091DA0080FF19C08091D8006F
:103EC00080FF15C08091DA008E7F8093DA008091A8
:103ED000D90080FF96C080E189BD82E189BD09B427
:103EE00000FEFDCF81E08093FD010E94141B8091B4
:103EF000E10080FF19C08091E20080FF15C0809131
:103F0000E2008E7F8093E2008091E20080618093E6
:103F1000E2008091D80080628093D80019BC85E0CF
:103F20008093FD010E94261B8091E10084FF2BC03D
:103F30008091E20084FF27C080E189BD82E189BDD4
:103F400089B5982F917080FFFBCF8091D8008F7D2D
:103F50008093D8008091E1008F7E8093E100809172
:103F6000E2008F7E8093E2008091E2008160809386
:103F7000E2008091F901882309F449C084E080932C
:103F8000FD010E94271B8091E10083FF29C08091E1
:103F9000E20083FF25C08091E100877F8093E100EC
:103FA00082E08093FD011092F9018091E1008E7F03
:103FB0008093E1008091E2008E7F8093E200809107
:103FC000E20080618093E20042E060E080E00E94D5
:103FD0003B1E8091F00088608093F0000E94251BBA
:103FE000FF91EF91BF91AF919F918F917F916F91D1
:103FF0005F914F913F912F910F900FBE0F901F90A7
:10400000189519BC1092FD010E94221B70CF80915F
:10401000E30087FD93E09093FD01B3CF1F920F92D1
:104020000FB60F9211242F933F934F935F936F938B
:104030007F938F939F93AF93BF93CF93DF93EF9330
:10404000FF93D091E900DF708091EC00C82FC17020
:1040500080FDC0E81092E9008091F000877F809396
:10406000F00078940E9452201092E9008091F000B4
:1040700088608093F000CD2BCF70C093E900FF9152
:10408000EF91DF91CF91BF91AF919F918F917F91F0
:104090006F915F914F913F912F910F900FBE0F90B5
:1040A0001F9018951F93CF93DF93CDB7DEB7AA97D4
:1040B0000FB6F894DEBF0FBECDBF8EEF91E020911A
:1040C000F100FC012193CF01F2E086309F07B9F7A0
:1040D0000E94371B8091E80083FF1EC18091FE0182
:1040E0009091FF019A3008F017C1E92FF0E0E25CEF
:1040F000FD4D0C94C021803899F0823809F00CC134
:10410000809102028F70873008F006C18093E90029
:104110008091EB0085FB882780F91092E90006C0AA
:104120008091FA019091FB01911182609091E800D9
:10413000977F9093E8008093F1001092F1008091B6
:10414000E8008E77E5C0882309F4D3C0823009F0F7
:10415000E3C0809100028111D6C0809102028F706D
:104160002FEF280F263008F0D7C08093E900209168
:10417000EB0020FFC8C0933031F48091EB008062E7
:104180008093EB00C0C09091EB0090619093EB00A6
:1041900021E030E001C0220F8A95EAF72093EA007F
:1041A0001092EA008091EB008860EACF8111B4C0E0
:1041B000109100021F778091E3008078812B80931B
:1041C000E3008091E800877F8093E8000E946F1EE3
:1041D0008091E80080FFFCCF8091E30080688093AD
:1041E000E30082E0111183E08093FD0195C08058C7
:1041F000823008F091C080910002909101028C3DC4
:1042000023E09207A1F583E08A838AE289834FB78E
:10421000F894DE01139620E03EE051E2E32FF0E057
:1042200050935700E49120FF03C0E295EF703F5F89
:10423000EF708E2F90E0EA30C0F0C7968D939D937B
:104240002F5F243159F74FBF8091E800877F80931B
:10425000E8006AE270E0CE0101960E947E1D809126
:10426000E8008B778093E80057C0C096E7CF609155
:10427000020270910302AE014F5F5F4F0E94671C04
:10428000BC01892B09F448C09091E800977F909376
:10429000E80089819A810E94DC1DE1CF8038E1F538
:1042A0008091E800877F8093E8008091F9018093F6
:1042B000F10045CF811130C090910002923060F53D
:1042C0008091E800877F8093E8009093F9010E9435
:1042D0006F1E8091F901882311F084E005C0809160
:1042E000E30087FDFACF81E08093FD010E94281B47
:1042F00013C080910002813079F481E0933009F09D
:1043000080E08093FB011092E9008091E800877FB4
:104310008093E8000E946F1E8091E80083FF0AC02E
:104320008091E800877F8093E8008091EB008062B5
:104330008093EB00AA960FB6F894DEBF0FBECDBFF8
:10434000DF91CF911F9108950895CF938091FD0142
:104350008823A1F0C091E900CF709091EC00892FE3
:10436000817090FD80E8C82B1092E9008091E800F0
:1043700083FD0E945220CF70C093E900CF91089531
:10438000EE0FFF1F0590F491E02D09946927962701
:1043900069277827872778270895F999FECF92BD56
:1043A00081BDF89A992780B50895A8E1B0E042E070
:1043B00050E00C940122262FF999FECF92BD81BDC9
:1043C000F89A019700B4021639F01FBA20BD0FB653
:1043D000F894FA9AF99A0FBE08950396272F0E942F
:1043E000DC210E94DB21252F0E94DC21242F0C944C
:1043F000DC210196272F0E94DC210C94DB21DC01BB
:10440000CB01FC01F999FECF06C0F2BDE1BDF89ADF
:10441000319600B40D9241505040B8F70895F89489
:10442000FFCF61086E089508A108AC08B708BA0864
:10443000BA08BA08BA08BA08BD08C108C908D60837
:10444000E308E608E908F608C710C7101F111F1196
:10445000F410F410F410F4107111FD110C120C1280
:10446000CA12CA12D312D312D512D312D312D31234
:10447000CA12CA12DA12D312D312DA127B20A32084
:104480008C21A3208C21D620F7208C214E215A216B
:10449000013101043201053601C201B71ABC1ABA52
:1044A0001ABB1AE91A01F6F7313332366697C63469
:0644B000350000000000D1
:00000001FF
